{
  "_format": "hh-sol-artifact-1",
  "contractName": "QSECrowdsale",
  "sourceName": "contracts/QSECrowdsale.sol",
  "abi": [
    {
      "inputs": [
        {
          "internalType": "uint256",
          "name": "initialRate",
          "type": "uint256"
        },
        {
          "internalType": "address payable",
          "name": "fundingWallet",
          "type": "address"
        },
        {
          "internalType": "address",
          "name": "tokenAddress",
          "type": "address"
        },
        {
          "internalType": "uint256",
          "name": "_saleStartTime",
          "type": "uint256"
        },
        {
          "internalType": "uint256",
          "name": "_saleEndTime",
          "type": "uint256"
        },
        {
          "internalType": "uint256",
          "name": "_minPurchase",
          "type": "uint256"
        },
        {
          "internalType": "uint256",
          "name": "_maxPurchase",
          "type": "uint256"
        }
      ],
      "stateMutability": "nonpayable",
      "type": "constructor"
    },
    {
      "inputs": [
        {
          "internalType": "address",
          "name": "owner",
          "type": "address"
        }
      ],
      "name": "OwnableInvalidOwner",
      "type": "error"
    },
    {
      "inputs": [
        {
          "internalType": "address",
          "name": "account",
          "type": "address"
        }
      ],
      "name": "OwnableUnauthorizedAccount",
      "type": "error"
    },
    {
      "inputs": [],
      "name": "ReentrancyGuardReentrantCall",
      "type": "error"
    },
    {
      "anonymous": false,
      "inputs": [
        {
          "indexed": true,
          "internalType": "address",
          "name": "previousOwner",
          "type": "address"
        },
        {
          "indexed": true,
          "internalType": "address",
          "name": "newOwner",
          "type": "address"
        }
      ],
      "name": "OwnershipTransferred",
      "type": "event"
    },
    {
      "anonymous": false,
      "inputs": [
        {
          "indexed": false,
          "internalType": "uint256",
          "name": "amount",
          "type": "uint256"
        }
      ],
      "name": "TokensBurned",
      "type": "event"
    },
    {
      "anonymous": false,
      "inputs": [
        {
          "indexed": true,
          "internalType": "address",
          "name": "purchaser",
          "type": "address"
        },
        {
          "indexed": false,
          "internalType": "uint256",
          "name": "value",
          "type": "uint256"
        },
        {
          "indexed": false,
          "internalType": "uint256",
          "name": "amount",
          "type": "uint256"
        }
      ],
      "name": "TokensPurchased",
      "type": "event"
    },
    {
      "inputs": [],
      "name": "BURN_RATE",
      "outputs": [
        {
          "internalType": "uint256",
          "name": "",
          "type": "uint256"
        }
      ],
      "stateMutability": "view",
      "type": "function"
    },
    {
      "inputs": [],
      "name": "buyTokens",
      "outputs": [],
      "stateMutability": "payable",
      "type": "function"
    },
    {
      "inputs": [],
      "name": "endSale",
      "outputs": [],
      "stateMutability": "nonpayable",
      "type": "function"
    },
    {
      "inputs": [],
      "name": "maxPurchase",
      "outputs": [
        {
          "internalType": "uint256",
          "name": "",
          "type": "uint256"
        }
      ],
      "stateMutability": "view",
      "type": "function"
    },
    {
      "inputs": [],
      "name": "minPurchase",
      "outputs": [
        {
          "internalType": "uint256",
          "name": "",
          "type": "uint256"
        }
      ],
      "stateMutability": "view",
      "type": "function"
    },
    {
      "inputs": [],
      "name": "owner",
      "outputs": [
        {
          "internalType": "address",
          "name": "",
          "type": "address"
        }
      ],
      "stateMutability": "view",
      "type": "function"
    },
    {
      "inputs": [],
      "name": "rate",
      "outputs": [
        {
          "internalType": "uint256",
          "name": "",
          "type": "uint256"
        }
      ],
      "stateMutability": "view",
      "type": "function"
    },
    {
      "inputs": [],
      "name": "renounceOwnership",
      "outputs": [],
      "stateMutability": "nonpayable",
      "type": "function"
    },
    {
      "inputs": [],
      "name": "saleEndTime",
      "outputs": [
        {
          "internalType": "uint256",
          "name": "",
          "type": "uint256"
        }
      ],
      "stateMutability": "view",
      "type": "function"
    },
    {
      "inputs": [],
      "name": "saleStartTime",
      "outputs": [
        {
          "internalType": "uint256",
          "name": "",
          "type": "uint256"
        }
      ],
      "stateMutability": "view",
      "type": "function"
    },
    {
      "inputs": [
        {
          "internalType": "uint256",
          "name": "newMinPurchase",
          "type": "uint256"
        },
        {
          "internalType": "uint256",
          "name": "newMaxPurchase",
          "type": "uint256"
        }
      ],
      "name": "setPurchaseLimits",
      "outputs": [],
      "stateMutability": "nonpayable",
      "type": "function"
    },
    {
      "inputs": [
        {
          "internalType": "uint256",
          "name": "newRate",
          "type": "uint256"
        }
      ],
      "name": "setRate",
      "outputs": [],
      "stateMutability": "nonpayable",
      "type": "function"
    },
    {
      "inputs": [
        {
          "internalType": "uint256",
          "name": "newStartTime",
          "type": "uint256"
        },
        {
          "internalType": "uint256",
          "name": "newEndTime",
          "type": "uint256"
        }
      ],
      "name": "setSalePeriod",
      "outputs": [],
      "stateMutability": "nonpayable",
      "type": "function"
    },
    {
      "inputs": [],
      "name": "token",
      "outputs": [
        {
          "internalType": "contract IERC20",
          "name": "",
          "type": "address"
        }
      ],
      "stateMutability": "view",
      "type": "function"
    },
    {
      "inputs": [
        {
          "internalType": "address",
          "name": "newOwner",
          "type": "address"
        }
      ],
      "name": "transferOwnership",
      "outputs": [],
      "stateMutability": "nonpayable",
      "type": "function"
    },
    {
      "inputs": [],
      "name": "wallet",
      "outputs": [
        {
          "internalType": "address payable",
          "name": "",
          "type": "address"
        }
      ],
      "stateMutability": "view",
      "type": "function"
    },
    {
      "inputs": [],
      "name": "weiRaised",
      "outputs": [
        {
          "internalType": "uint256",
          "name": "",
          "type": "uint256"
        }
      ],
      "stateMutability": "view",
      "type": "function"
    },
    {
      "stateMutability": "payable",
      "type": "receive"
    }
  ],
  "bytecode": "0x60806040523480156200001157600080fd5b506040516200223f3803806200223f833981810160405281019062000037919062000567565b33600073ffffffffffffffffffffffffffffffffffffffff168173ffffffffffffffffffffffffffffffffffffffff1603620000ad5760006040517f1e4fbdf7000000000000000000000000000000000000000000000000000000008152600401620000a491906200062b565b60405180910390fd5b620000be81620003b960201b60201c565b5060018081905550600087116200010c576040517f08c379a00000000000000000000000000000000000000000000000000000000081526004016200010390620006a9565b60405180910390fd5b600073ffffffffffffffffffffffffffffffffffffffff168673ffffffffffffffffffffffffffffffffffffffff16036200017e576040517f08c379a000000000000000000000000000000000000000000000000000000000815260040162000175906200071b565b60405180910390fd5b600073ffffffffffffffffffffffffffffffffffffffff168573ffffffffffffffffffffffffffffffffffffffff1603620001f0576040517f08c379a0000000000000000000000000000000000000000000000000000000008152600401620001e7906200078d565b60405180910390fd5b4284101562000236576040517f08c379a00000000000000000000000000000000000000000000000000000000081526004016200022d9062000825565b60405180910390fd5b8383116200027b576040517f08c379a00000000000000000000000000000000000000000000000000000000081526004016200027290620008bd565b60405180910390fd5b60008211620002c1576040517f08c379a0000000000000000000000000000000000000000000000000000000008152600401620002b89062000955565b60405180910390fd5b8181101562000307576040517f08c379a0000000000000000000000000000000000000000000000000000000008152600401620002fe90620009ed565b60405180910390fd5b8660038190555085600960006101000a81548173ffffffffffffffffffffffffffffffffffffffff021916908373ffffffffffffffffffffffffffffffffffffffff16021790555084600260006101000a81548173ffffffffffffffffffffffffffffffffffffffff021916908373ffffffffffffffffffffffffffffffffffffffff160217905550836004819055508260058190555081600681905550806007819055505050505050505062000a0f565b60008060009054906101000a900473ffffffffffffffffffffffffffffffffffffffff169050816000806101000a81548173ffffffffffffffffffffffffffffffffffffffff021916908373ffffffffffffffffffffffffffffffffffffffff1602179055508173ffffffffffffffffffffffffffffffffffffffff168173ffffffffffffffffffffffffffffffffffffffff167f8be0079c531659141344cd1fd0a4f28419497f9722a3daafe3b4186f6b6457e060405160405180910390a35050565b600080fd5b6000819050919050565b620004978162000482565b8114620004a357600080fd5b50565b600081519050620004b7816200048c565b92915050565b600073ffffffffffffffffffffffffffffffffffffffff82169050919050565b6000620004ea82620004bd565b9050919050565b620004fc81620004dd565b81146200050857600080fd5b50565b6000815190506200051c81620004f1565b92915050565b60006200052f82620004bd565b9050919050565b620005418162000522565b81146200054d57600080fd5b50565b600081519050620005618162000536565b92915050565b600080600080600080600060e0888a0312156200058957620005886200047d565b5b6000620005998a828b01620004a6565b9750506020620005ac8a828b016200050b565b9650506040620005bf8a828b0162000550565b9550506060620005d28a828b01620004a6565b9450506080620005e58a828b01620004a6565b93505060a0620005f88a828b01620004a6565b92505060c06200060b8a828b01620004a6565b91505092959891949750929550565b620006258162000522565b82525050565b60006020820190506200064260008301846200061a565b92915050565b600082825260208201905092915050565b7f52617465206d7573742062652067726561746572207468616e20300000000000600082015250565b600062000691601b8362000648565b91506200069e8262000659565b602082019050919050565b60006020820190508181036000830152620006c48162000682565b9050919050565b7f57616c6c65742063616e6e6f74206265207a65726f2061646472657373000000600082015250565b600062000703601d8362000648565b91506200071082620006cb565b602082019050919050565b600060208201905081810360008301526200073681620006f4565b9050919050565b7f546f6b656e2063616e6e6f74206265207a65726f206164647265737300000000600082015250565b600062000775601c8362000648565b915062000782826200073d565b602082019050919050565b60006020820190508181036000830152620007a88162000766565b9050919050565b7f53616c652073746172742074696d65206d75737420626520696e20746865206660008201527f7574757265000000000000000000000000000000000000000000000000000000602082015250565b60006200080d60258362000648565b91506200081a82620007af565b604082019050919050565b600060208201905081810360008301526200084081620007fe565b9050919050565b7f53616c6520656e642074696d65206d757374206265206166746572207374617260008201527f742074696d650000000000000000000000000000000000000000000000000000602082015250565b6000620008a560268362000648565b9150620008b28262000847565b604082019050919050565b60006020820190508181036000830152620008d88162000896565b9050919050565b7f4d696e20707572636861736520616d6f756e74206d757374206265206772656160008201527f746572207468616e203000000000000000000000000000000000000000000000602082015250565b60006200093d602a8362000648565b91506200094a82620008df565b604082019050919050565b6000602082019050818103600083015262000970816200092e565b9050919050565b7f4d6178207075726368617365206d757374206265203e3d206d696e207075726360008201527f6861736500000000000000000000000000000000000000000000000000000000602082015250565b6000620009d560248362000648565b9150620009e28262000977565b604082019050919050565b6000602082019050818103600083015262000a0881620009c6565b9050919050565b6118208062000a1f6000396000f3fe6080604052600436106101025760003560e01c80638da5cb5b11610095578063d0febe4c11610064578063d0febe4c146102ec578063ed338ff1146102f6578063f2fde38b14610321578063f846a8851461034a578063fc0c546a1461037557610111565b80638da5cb5b14610244578063977b055b1461026f578063ba1c3b921461029a578063be30f0a6146102c357610111565b8063380d831b116100d1578063380d831b146101c05780634042b66f146101d7578063521eb27314610202578063715018a61461022d57610111565b80631cbaee2d146101165780632c4e722e1461014157806333b5b62e1461016c57806334fcf4371461019757610111565b366101115761010f6103a0565b005b600080fd5b34801561012257600080fd5b5061012b6106cd565b6040516101389190610e6d565b60405180910390f35b34801561014d57600080fd5b506101566106d3565b6040516101639190610e6d565b60405180910390f35b34801561017857600080fd5b506101816106d9565b60405161018e9190610e6d565b60405180910390f35b3480156101a357600080fd5b506101be60048036038101906101b99190610eb9565b6106df565b005b3480156101cc57600080fd5b506101d5610734565b005b3480156101e357600080fd5b506101ec61091f565b6040516101f99190610e6d565b60405180910390f35b34801561020e57600080fd5b50610217610925565b6040516102249190610f27565b60405180910390f35b34801561023957600080fd5b5061024261094b565b005b34801561025057600080fd5b5061025961095f565b6040516102669190610f63565b60405180910390f35b34801561027b57600080fd5b50610284610988565b6040516102919190610e6d565b60405180910390f35b3480156102a657600080fd5b506102c160048036038101906102bc9190610f7e565b61098e565b005b3480156102cf57600080fd5b506102ea60048036038101906102e59190610f7e565b610a2d565b005b6102f46103a0565b005b34801561030257600080fd5b5061030b610acd565b6040516103189190610e6d565b60405180910390f35b34801561032d57600080fd5b5061034860048036038101906103439190610fea565b610ad3565b005b34801561035657600080fd5b5061035f610b59565b60405161036c9190610e6d565b60405180910390f35b34801561038157600080fd5b5061038a610b5e565b6040516103979190611076565b60405180910390f35b6103a8610b84565b60003490506103b681610bca565b60006103c182610ce1565b9050600060646002836103d491906110c0565b6103de9190611131565b9050600081836103ee9190611162565b905083600860008282546104029190611196565b92505081905550600260009054906101000a900473ffffffffffffffffffffffffffffffffffffffff1673ffffffffffffffffffffffffffffffffffffffff1663a9059cbb33836040518363ffffffff1660e01b81526004016104669291906111ca565b6020604051808303816000875af1158015610485573d6000803e3d6000fd5b505050506040513d601f19601f820116820180604052508101906104a9919061122b565b6104e8576040517f08c379a00000000000000000000000000000000000000000000000000000000081526004016104df906112b5565b60405180910390fd5b600061dead9050600260009054906101000a900473ffffffffffffffffffffffffffffffffffffffff1673ffffffffffffffffffffffffffffffffffffffff1663a9059cbb82856040518363ffffffff1660e01b815260040161054c9291906111ca565b6020604051808303816000875af115801561056b573d6000803e3d6000fd5b505050506040513d601f19601f8201168201806040525081019061058f919061122b565b6105ce576040517f08c379a00000000000000000000000000000000000000000000000000000000081526004016105c590611321565b60405180910390fd5b600960009054906101000a900473ffffffffffffffffffffffffffffffffffffffff1673ffffffffffffffffffffffffffffffffffffffff166108fc869081150290604051600060405180830381858888f19350505050158015610636573d6000803e3d6000fd5b503373ffffffffffffffffffffffffffffffffffffffff167f8fafebcaf9d154343dad25669bfa277f4fbacd7ac6b0c4fed522580e040a0f33868460405161067f929190611341565b60405180910390a27f6ef4855b666dcc7884561072e4358b28dfe01feb1b7f4dcebc00e62d50394ac7836040516106b69190610e6d565b60405180910390a150505050506106cb610cf8565b565b60045481565b60035481565b60065481565b6106e7610d01565b6000811161072a576040517f08c379a0000000000000000000000000000000000000000000000000000000008152600401610721906113b6565b60405180910390fd5b8060038190555050565b61073c610d01565b60055442118061074d575060045442115b61078c576040517f08c379a000000000000000000000000000000000000000000000000000000000815260040161078390611422565b60405180910390fd5b6000600260009054906101000a900473ffffffffffffffffffffffffffffffffffffffff1673ffffffffffffffffffffffffffffffffffffffff166370a08231306040518263ffffffff1660e01b81526004016107e99190610f63565b602060405180830381865afa158015610806573d6000803e3d6000fd5b505050506040513d601f19601f8201168201806040525081019061082a9190611457565b9050600081111561091c57600260009054906101000a900473ffffffffffffffffffffffffffffffffffffffff1673ffffffffffffffffffffffffffffffffffffffff1663a9059cbb61087b61095f565b836040518363ffffffff1660e01b81526004016108999291906111ca565b6020604051808303816000875af11580156108b8573d6000803e3d6000fd5b505050506040513d601f19601f820116820180604052508101906108dc919061122b565b61091b576040517f08c379a0000000000000000000000000000000000000000000000000000000008152600401610912906112b5565b60405180910390fd5b5b50565b60085481565b600960009054906101000a900473ffffffffffffffffffffffffffffffffffffffff1681565b610953610d01565b61095d6000610d88565b565b60008060009054906101000a900473ffffffffffffffffffffffffffffffffffffffff16905090565b60075481565b610996610d01565b428210156109d9576040517f08c379a00000000000000000000000000000000000000000000000000000000081526004016109d0906114d0565b60405180910390fd5b818111610a1b576040517f08c379a0000000000000000000000000000000000000000000000000000000008152600401610a1290611562565b60405180910390fd5b81600481905550806005819055505050565b610a35610d01565b60008211610a78576040517f08c379a0000000000000000000000000000000000000000000000000000000008152600401610a6f906115f4565b60405180910390fd5b81811015610abb576040517f08c379a0000000000000000000000000000000000000000000000000000000008152600401610ab290611686565b60405180910390fd5b81600681905550806007819055505050565b60055481565b610adb610d01565b600073ffffffffffffffffffffffffffffffffffffffff168173ffffffffffffffffffffffffffffffffffffffff1603610b4d5760006040517f1e4fbdf7000000000000000000000000000000000000000000000000000000008152600401610b449190610f63565b60405180910390fd5b610b5681610d88565b50565b600281565b600260009054906101000a900473ffffffffffffffffffffffffffffffffffffffff1681565b600260015403610bc0576040517f3ee5aeb500000000000000000000000000000000000000000000000000000000815260040160405180910390fd5b6002600181905550565b600454421015610c0f576040517f08c379a0000000000000000000000000000000000000000000000000000000008152600401610c0690611422565b60405180910390fd5b600554421115610c54576040517f08c379a0000000000000000000000000000000000000000000000000000000008152600401610c4b906116f2565b60405180910390fd5b600654811015610c99576040517f08c379a0000000000000000000000000000000000000000000000000000000008152600401610c909061175e565b60405180910390fd5b600754811115610cde576040517f08c379a0000000000000000000000000000000000000000000000000000000008152600401610cd5906117ca565b60405180910390fd5b50565b600060035482610cf191906110c0565b9050919050565b60018081905550565b610d09610e4c565b73ffffffffffffffffffffffffffffffffffffffff16610d2761095f565b73ffffffffffffffffffffffffffffffffffffffff1614610d8657610d4a610e4c565b6040517f118cdaa7000000000000000000000000000000000000000000000000000000008152600401610d7d9190610f63565b60405180910390fd5b565b60008060009054906101000a900473ffffffffffffffffffffffffffffffffffffffff169050816000806101000a81548173ffffffffffffffffffffffffffffffffffffffff021916908373ffffffffffffffffffffffffffffffffffffffff1602179055508173ffffffffffffffffffffffffffffffffffffffff168173ffffffffffffffffffffffffffffffffffffffff167f8be0079c531659141344cd1fd0a4f28419497f9722a3daafe3b4186f6b6457e060405160405180910390a35050565b600033905090565b6000819050919050565b610e6781610e54565b82525050565b6000602082019050610e826000830184610e5e565b92915050565b600080fd5b610e9681610e54565b8114610ea157600080fd5b50565b600081359050610eb381610e8d565b92915050565b600060208284031215610ecf57610ece610e88565b5b6000610edd84828501610ea4565b91505092915050565b600073ffffffffffffffffffffffffffffffffffffffff82169050919050565b6000610f1182610ee6565b9050919050565b610f2181610f06565b82525050565b6000602082019050610f3c6000830184610f18565b92915050565b6000610f4d82610ee6565b9050919050565b610f5d81610f42565b82525050565b6000602082019050610f786000830184610f54565b92915050565b60008060408385031215610f9557610f94610e88565b5b6000610fa385828601610ea4565b9250506020610fb485828601610ea4565b9150509250929050565b610fc781610f42565b8114610fd257600080fd5b50565b600081359050610fe481610fbe565b92915050565b60006020828403121561100057610fff610e88565b5b600061100e84828501610fd5565b91505092915050565b6000819050919050565b600061103c61103761103284610ee6565b611017565b610ee6565b9050919050565b600061104e82611021565b9050919050565b600061106082611043565b9050919050565b61107081611055565b82525050565b600060208201905061108b6000830184611067565b92915050565b7f4e487b7100000000000000000000000000000000000000000000000000000000600052601160045260246000fd5b60006110cb82610e54565b91506110d683610e54565b92508282026110e481610e54565b915082820484148315176110fb576110fa611091565b5b5092915050565b7f4e487b7100000000000000000000000000000000000000000000000000000000600052601260045260246000fd5b600061113c82610e54565b915061114783610e54565b92508261115757611156611102565b5b828204905092915050565b600061116d82610e54565b915061117883610e54565b92508282039050818111156111905761118f611091565b5b92915050565b60006111a182610e54565b91506111ac83610e54565b92508282019050808211156111c4576111c3611091565b5b92915050565b60006040820190506111df6000830185610f54565b6111ec6020830184610e5e565b9392505050565b60008115159050919050565b611208816111f3565b811461121357600080fd5b50565b600081519050611225816111ff565b92915050565b60006020828403121561124157611240610e88565b5b600061124f84828501611216565b91505092915050565b600082825260208201905092915050565b7f546f6b656e207472616e73666572206661696c65640000000000000000000000600082015250565b600061129f601583611258565b91506112aa82611269565b602082019050919050565b600060208201905081810360008301526112ce81611292565b9050919050565b7f546f6b656e206275726e206661696c6564000000000000000000000000000000600082015250565b600061130b601183611258565b9150611316826112d5565b602082019050919050565b6000602082019050818103600083015261133a816112fe565b9050919050565b60006040820190506113566000830185610e5e565b6113636020830184610e5e565b9392505050565b7f52617465206d7573742062652067726561746572207468616e20300000000000600082015250565b60006113a0601b83611258565b91506113ab8261136a565b602082019050919050565b600060208201905081810360008301526113cf81611393565b9050919050565b7f53616c65206e6f74207374617274656400000000000000000000000000000000600082015250565b600061140c601083611258565b9150611417826113d6565b602082019050919050565b6000602082019050818103600083015261143b816113ff565b9050919050565b60008151905061145181610e8d565b92915050565b60006020828403121561146d5761146c610e88565b5b600061147b84828501611442565b91505092915050565b7f53746172742074696d65206d75737420626520696e2074686520667574757265600082015250565b60006114ba602083611258565b91506114c582611484565b602082019050919050565b600060208201905081810360008301526114e9816114ad565b9050919050565b7f456e642074696d65206d7573742062652061667465722073746172742074696d60008201527f6500000000000000000000000000000000000000000000000000000000000000602082015250565b600061154c602183611258565b9150611557826114f0565b604082019050919050565b6000602082019050818103600083015261157b8161153f565b9050919050565b7f4d696e207075726368617365206d75737420626520677265617465722074686160008201527f6e20300000000000000000000000000000000000000000000000000000000000602082015250565b60006115de602383611258565b91506115e982611582565b604082019050919050565b6000602082019050818103600083015261160d816115d1565b9050919050565b7f4d6178207075726368617365206d757374206265203e3d206d696e207075726360008201527f6861736500000000000000000000000000000000000000000000000000000000602082015250565b6000611670602483611258565b915061167b82611614565b604082019050919050565b6000602082019050818103600083015261169f81611663565b9050919050565b7f53616c6520656e64656400000000000000000000000000000000000000000000600082015250565b60006116dc600a83611258565b91506116e7826116a6565b602082019050919050565b6000602082019050818103600083015261170b816116cf565b9050919050565b7f50757263686173652062656c6f77206d696e696d756d00000000000000000000600082015250565b6000611748601683611258565b915061175382611712565b602082019050919050565b600060208201905081810360008301526117778161173b565b9050919050565b7f50757263686173652061626f7665206d6178696d756d00000000000000000000600082015250565b60006117b4601683611258565b91506117bf8261177e565b602082019050919050565b600060208201905081810360008301526117e3816117a7565b905091905056fea2646970667358221220c5d4c360f3c9750d5fdb0e96033a6be44f15ba69c84b83b7ae52ef7d59d4868664736f6c63430008140033",
  "linkReferences": {},
  "deployedLinkReferences": {}
}