{
  "_format": "hh-sol-artifact-1",
  "contractName": "QSE",
  "sourceName": "contracts/QSE.sol",
  "abi": [
    {
      "inputs": [
        {
          "internalType": "address",
          "name": "initialOwner",
          "type": "address"
        }
      ],
      "stateMutability": "nonpayable",
      "type": "constructor"
    },
    {
      "inputs": [
        {
          "internalType": "address",
          "name": "owner",
          "type": "address"
        }
      ],
      "name": "OwnableInvalidOwner",
      "type": "error"
    },
    {
      "inputs": [
        {
          "internalType": "address",
          "name": "account",
          "type": "address"
        }
      ],
      "name": "OwnableUnauthorizedAccount",
      "type": "error"
    },
    {
      "anonymous": false,
      "inputs": [
        {
          "indexed": true,
          "internalType": "address",
          "name": "owner",
          "type": "address"
        },
        {
          "indexed": true,
          "internalType": "address",
          "name": "spender",
          "type": "address"
        },
        {
          "indexed": false,
          "internalType": "uint256",
          "name": "value",
          "type": "uint256"
        }
      ],
      "name": "Approval",
      "type": "event"
    },
    {
      "anonymous": false,
      "inputs": [
        {
          "indexed": true,
          "internalType": "address",
          "name": "previousOwner",
          "type": "address"
        },
        {
          "indexed": true,
          "internalType": "address",
          "name": "newOwner",
          "type": "address"
        }
      ],
      "name": "OwnershipTransferred",
      "type": "event"
    },
    {
      "anonymous": false,
      "inputs": [
        {
          "indexed": true,
          "internalType": "address",
          "name": "from",
          "type": "address"
        },
        {
          "indexed": true,
          "internalType": "address",
          "name": "to",
          "type": "address"
        },
        {
          "indexed": false,
          "internalType": "uint256",
          "name": "value",
          "type": "uint256"
        }
      ],
      "name": "Transfer",
      "type": "event"
    },
    {
      "inputs": [],
      "name": "DOMAIN_SEPARATOR",
      "outputs": [
        {
          "internalType": "bytes32",
          "name": "",
          "type": "bytes32"
        }
      ],
      "stateMutability": "view",
      "type": "function"
    },
    {
      "inputs": [
        {
          "internalType": "address",
          "name": "owner",
          "type": "address"
        },
        {
          "internalType": "address",
          "name": "spender",
          "type": "address"
        }
      ],
      "name": "allowance",
      "outputs": [
        {
          "internalType": "uint256",
          "name": "",
          "type": "uint256"
        }
      ],
      "stateMutability": "view",
      "type": "function"
    },
    {
      "inputs": [
        {
          "internalType": "address",
          "name": "spender",
          "type": "address"
        },
        {
          "internalType": "uint256",
          "name": "amount",
          "type": "uint256"
        }
      ],
      "name": "approve",
      "outputs": [
        {
          "internalType": "bool",
          "name": "",
          "type": "bool"
        }
      ],
      "stateMutability": "nonpayable",
      "type": "function"
    },
    {
      "inputs": [
        {
          "internalType": "address",
          "name": "account",
          "type": "address"
        }
      ],
      "name": "balanceOf",
      "outputs": [
        {
          "internalType": "uint256",
          "name": "",
          "type": "uint256"
        }
      ],
      "stateMutability": "view",
      "type": "function"
    },
    {
      "inputs": [],
      "name": "decimals",
      "outputs": [
        {
          "internalType": "uint8",
          "name": "",
          "type": "uint8"
        }
      ],
      "stateMutability": "pure",
      "type": "function"
    },
    {
      "inputs": [],
      "name": "name",
      "outputs": [
        {
          "internalType": "string",
          "name": "",
          "type": "string"
        }
      ],
      "stateMutability": "view",
      "type": "function"
    },
    {
      "inputs": [
        {
          "internalType": "address",
          "name": "owner",
          "type": "address"
        }
      ],
      "name": "nonces",
      "outputs": [
        {
          "internalType": "uint256",
          "name": "",
          "type": "uint256"
        }
      ],
      "stateMutability": "view",
      "type": "function"
    },
    {
      "inputs": [],
      "name": "owner",
      "outputs": [
        {
          "internalType": "address",
          "name": "",
          "type": "address"
        }
      ],
      "stateMutability": "view",
      "type": "function"
    },
    {
      "inputs": [
        {
          "internalType": "address",
          "name": "owner",
          "type": "address"
        },
        {
          "internalType": "address",
          "name": "spender",
          "type": "address"
        },
        {
          "internalType": "uint256",
          "name": "value",
          "type": "uint256"
        },
        {
          "internalType": "uint256",
          "name": "deadline",
          "type": "uint256"
        },
        {
          "internalType": "uint8",
          "name": "v",
          "type": "uint8"
        },
        {
          "internalType": "bytes32",
          "name": "r",
          "type": "bytes32"
        },
        {
          "internalType": "bytes32",
          "name": "s",
          "type": "bytes32"
        }
      ],
      "name": "permit",
      "outputs": [],
      "stateMutability": "nonpayable",
      "type": "function"
    },
    {
      "inputs": [],
      "name": "renounceOwnership",
      "outputs": [],
      "stateMutability": "nonpayable",
      "type": "function"
    },
    {
      "inputs": [],
      "name": "symbol",
      "outputs": [
        {
          "internalType": "string",
          "name": "",
          "type": "string"
        }
      ],
      "stateMutability": "view",
      "type": "function"
    },
    {
      "inputs": [],
      "name": "totalSupply",
      "outputs": [
        {
          "internalType": "uint256",
          "name": "",
          "type": "uint256"
        }
      ],
      "stateMutability": "view",
      "type": "function"
    },
    {
      "inputs": [
        {
          "internalType": "address",
          "name": "to",
          "type": "address"
        },
        {
          "internalType": "uint256",
          "name": "amount",
          "type": "uint256"
        }
      ],
      "name": "transfer",
      "outputs": [
        {
          "internalType": "bool",
          "name": "",
          "type": "bool"
        }
      ],
      "stateMutability": "nonpayable",
      "type": "function"
    },
    {
      "inputs": [
        {
          "internalType": "address",
          "name": "from",
          "type": "address"
        },
        {
          "internalType": "address",
          "name": "to",
          "type": "address"
        },
        {
          "internalType": "uint256",
          "name": "amount",
          "type": "uint256"
        }
      ],
      "name": "transferFrom",
      "outputs": [
        {
          "internalType": "bool",
          "name": "",
          "type": "bool"
        }
      ],
      "stateMutability": "nonpayable",
      "type": "function"
    },
    {
      "inputs": [
        {
          "internalType": "address",
          "name": "newOwner",
          "type": "address"
        }
      ],
      "name": "transferOwnership",
      "outputs": [],
      "stateMutability": "nonpayable",
      "type": "function"
    }
  ],
  "bytecode": "0x6080806040523461034d57602081610f3e803803809161001f8285610352565b83398101031261034d57516001600160a01b0381169081900361034d57801561033757600080546001600160a01b031981168317825582916001600160a01b03909116907f8be0079c531659141344cd1fd0a4f28419497f9722a3daafe3b4186f6b6457e09080a3633b9aca0060045561009a60055461038b565b601f8111610309575b507f5175616e74756d53454320416e616c797469637320546f6b656e0000000000346005556006546100d49061038b565b601f81116102bf575b5060066251534560e81b0160065560405160055460009182816100ff8461038b565b9182825260208201946001811690816000146102a35750600114610245575b61012a92500382610352565b519020604080519081016001600160401b038111828210176102315760019160209160405282815201603160f81b8152206040519060208201927f8b73c3c69bb8fe3d512ecc4cf759cc79239f7b179b0ffacaa9a75d522b39400f8452604083015260608201524660808201523060a082015260a081526101ac60c082610352565b519020600755600454670de0b6b3a7640000810290808204670de0b6b3a7640000149015171561021d5760207fddf252ad1be2c89b69c2b068fc378daa952ba7f163c4a11628f55a4df523b3ef9184845260018252806040852055604051908152a3604051610b7890816103c68239f35b634e487b7160e01b82526011600452602482fd5b634e487b7160e01b84526041600452602484fd5b50600585529084907f036b6384b5eca791c62761152d0c79bb0604c104a5fb6f4eb0703f3154bb3db05b81831061028757505090602061012a9282010161011e565b602091935080600191548385880101520191019091839261026f565b60ff191686525061012a92151560051b8201602001905061011e565b6006600052601f0160051c7ff652222313e28459528d920b65115c16c04f3efc82aaedc97be59f3f377c0d3f908101905b8181106102fd57506100dd565b600081556001016102f0565b6005600052601f6020600020910160051c8101905b81811061032b57506100a3565b6000815560010161031e565b631e4fbdf760e01b600052600060045260246000fd5b600080fd5b601f909101601f19168101906001600160401b0382119082101761037557604052565b634e487b7160e01b600052604160045260246000fd5b90600182811c921680156103bb575b60208310146103a557565b634e487b7160e01b600052602260045260246000fd5b91607f169161039a56fe608080604052600436101561001357600080fd5b60003560e01c90816306fdde031461072a57508063095ea7b31461070457806318160ddd146106c457806323b872dd146105fd578063313ce567146105e15780633644e515146105c357806370a0823114610589578063715018a6146105305780637ecebe00146104f65780638da5cb5b146104cd57806395d89b41146103c6578063a9059cbb14610395578063d505accf146101a3578063dd62ed3e146101525763f2fde38b146100c457600080fd5b3461014d57602036600319011261014d576100dd61082e565b6100e5610b19565b6001600160a01b0316801561013757600080546001600160a01b03198116831782556001600160a01b0316907f8be0079c531659141344cd1fd0a4f28419497f9722a3daafe3b4186f6b6457e09080a3005b631e4fbdf760e01b600052600060045260246000fd5b600080fd5b3461014d57604036600319011261014d5761016b61082e565b610173610844565b6001600160a01b039182166000908152600260209081526040808320949093168252928352819020549051908152f35b3461014d5760e036600319011261014d576101bc61082e565b6101c4610844565b6044359060643560843560ff811680910361014d57814211610350576001600160a01b0385166000818152600360205260409020805491939192600019841461033a5783600093608093600160209701905560405190868201927f6e71edae12b1b97f4d1f60370fef10105fa2faae0126114a169c64845d6126c9845288604084015260018060a01b038a1660608401528a8684015260a083015260c082015260c0815261027360e08261085a565b51902060075490604051908682019261190160f01b845260228301526042820152604281526102a360628261085a565b519020906040519182528482015260a435604082015260c435606082015282805260015afa1561032e576000516001600160a01b0316036102e9576102e792610892565b005b60405162461bcd60e51b815260206004820152601e60248201527f45524332305065726d69743a20696e76616c6964207369676e617475726500006044820152606490fd5b6040513d6000823e3d90fd5b634e487b7160e01b600052601160045260246000fd5b60405162461bcd60e51b815260206004820152601d60248201527f45524332305065726d69743a206578706972656420646561646c696e650000006044820152606490fd5b3461014d57604036600319011261014d576103bb6103b161082e565b602435903361099a565b602060405160018152f35b3461014d57600036600319011261014d5760405160006006548060011c906001811680156104c3575b6020831081146104af5782855290811561048b575060011461042c575b6104288361041c8185038261085a565b604051918291826107e5565b0390f35b600660009081527ff652222313e28459528d920b65115c16c04f3efc82aaedc97be59f3f377c0d3f939250905b8082106104715750909150810160200161041c61040c565b919260018160209254838588010152019101909291610459565b60ff191660208086019190915291151560051b8401909101915061041c905061040c565b634e487b7160e01b84526022600452602484fd5b91607f16916103ef565b3461014d57600036600319011261014d576000546040516001600160a01b039091168152602090f35b3461014d57602036600319011261014d576001600160a01b0361051761082e565b1660005260036020526020604060002054604051908152f35b3461014d57600036600319011261014d57610549610b19565b600080546001600160a01b0319811682556001600160a01b03167f8be0079c531659141344cd1fd0a4f28419497f9722a3daafe3b4186f6b6457e08280a3005b3461014d57602036600319011261014d576001600160a01b036105aa61082e565b1660005260016020526020604060002054604051908152f35b3461014d57600036600319011261014d576020600754604051908152f35b3461014d57600036600319011261014d57602060405160128152f35b3461014d57606036600319011261014d5761061661082e565b61061e610844565b6001600160a01b03821660009081526002602090815260408083203384529091529020549160443591906001840161065b575b6103bb935061099a565b82841061067f5782840393841161033a5761067a6103bb943383610892565b610651565b60405162461bcd60e51b815260206004820152601d60248201527f45524332303a20696e73756666696369656e7420616c6c6f77616e63650000006044820152606490fd5b3461014d57600036600319011261014d57600454670de0b6b3a7640000810290808204670de0b6b3a7640000149015171561033a57602090604051908152f35b3461014d57604036600319011261014d576103bb61072061082e565b6024359033610892565b3461014d57600036600319011261014d5760006005548060011c906001811680156107db575b6020831081146104af5782855290811561048b575060011461077c576104288361041c8185038261085a565b600560009081527f036b6384b5eca791c62761152d0c79bb0604c104a5fb6f4eb0703f3154bb3db0939250905b8082106107c15750909150810160200161041c61040c565b9192600181602092548385880101520191019092916107a9565b91607f1691610750565b91909160208152825180602083015260005b818110610818575060409293506000838284010152601f8019910116010190565b80602080928701015160408286010152016107f7565b600435906001600160a01b038216820361014d57565b602435906001600160a01b038216820361014d57565b90601f8019910116810190811067ffffffffffffffff82111761087c57604052565b634e487b7160e01b600052604160045260246000fd5b6001600160a01b0316908115610949576001600160a01b03169182156108f95760207f8c5be1e5ebec7d5bd14f71427d1e84f3dd0314c0f7b2291e5b200ac8c7c3b925918360005260028252604060002085600052825280604060002055604051908152a3565b60405162461bcd60e51b815260206004820152602260248201527f45524332303a20617070726f766520746f20746865207a65726f206164647265604482015261737360f01b6064820152608490fd5b60405162461bcd60e51b8152602060048201526024808201527f45524332303a20617070726f76652066726f6d20746865207a65726f206164646044820152637265737360e01b6064820152608490fd5b6001600160a01b0316908115610ac6576001600160a01b0316918215610a7557816000526001602052604060002054818110610a2157817fddf252ad1be2c89b69c2b068fc378daa952ba7f163c4a11628f55a4df523b3ef9260209285600052600184520360406000205584600052600182526040600020818154019055604051908152a3565b60405162461bcd60e51b815260206004820152602660248201527f45524332303a207472616e7366657220616d6f756e7420657863656564732062604482015265616c616e636560d01b6064820152608490fd5b60405162461bcd60e51b815260206004820152602360248201527f45524332303a207472616e7366657220746f20746865207a65726f206164647260448201526265737360e81b6064820152608490fd5b60405162461bcd60e51b815260206004820152602560248201527f45524332303a207472616e736665722066726f6d20746865207a65726f206164604482015264647265737360d81b6064820152608490fd5b6000546001600160a01b03163303610b2d57565b63118cdaa760e01b6000523360045260246000fdfea26469706673582212204d069ff9af40eccaa7a4483c3626a474064cfdc1ce931b2abe543e83268d4f9f64736f6c634300081e0033",
  "linkReferences": {},
  "deployedLinkReferences": {}
}