{
  "_format": "hh-sol-artifact-1",
  "contractName": "QSEPrivateSale",
  "sourceName": "contracts/QSEPrivateSale.sol",
  "abi": [
    {
      "inputs": [
        {
          "internalType": "address",
          "name": "tokenAddress_",
          "type": "address"
        }
      ],
      "stateMutability": "nonpayable",
      "type": "constructor"
    },
    {
      "inputs": [],
      "name": "EnforcedPause",
      "type": "error"
    },
    {
      "inputs": [],
      "name": "ExpectedPause",
      "type": "error"
    },
    {
      "inputs": [
        {
          "internalType": "string",
          "name": "reason",
          "type": "string"
        }
      ],
      "name": "InvalidWallet",
      "type": "error"
    },
    {
      "inputs": [],
      "name": "NotOwner",
      "type": "error"
    },
    {
      "inputs": [],
      "name": "ReentrancyGuardReentrantCall",
      "type": "error"
    },
    {
      "anonymous": false,
      "inputs": [
        {
          "indexed": false,
          "internalType": "uint256",
          "name": "slippage",
          "type": "uint256"
        },
        {
          "indexed": false,
          "internalType": "uint256",
          "name": "maxSlippage",
          "type": "uint256"
        }
      ],
      "name": "DefaultSlippageChangedTo",
      "type": "event"
    },
    {
      "anonymous": false,
      "inputs": [
        {
          "indexed": false,
          "internalType": "address",
          "name": "unpauser",
          "type": "address"
        },
        {
          "indexed": false,
          "internalType": "uint256",
          "name": "unpausedAt",
          "type": "uint256"
        }
      ],
      "name": "EmergencyUnpaused",
      "type": "event"
    },
    {
      "anonymous": false,
      "inputs": [
        {
          "indexed": true,
          "internalType": "address",
          "name": "caller",
          "type": "address"
        },
        {
          "indexed": false,
          "internalType": "uint256",
          "name": "fundsAmount",
          "type": "uint256"
        },
        {
          "indexed": false,
          "internalType": "uint256",
          "name": "timestamp",
          "type": "uint256"
        }
      ],
      "name": "FundsRefunded",
      "type": "event"
    },
    {
      "anonymous": false,
      "inputs": [
        {
          "indexed": true,
          "internalType": "address",
          "name": "wallet",
          "type": "address"
        },
        {
          "indexed": false,
          "internalType": "uint256",
          "name": "usdtBalance",
          "type": "uint256"
        },
        {
          "indexed": false,
          "internalType": "uint256",
          "name": "usdcBalance",
          "type": "uint256"
        },
        {
          "indexed": false,
          "internalType": "uint256",
          "name": "daiBalance",
          "type": "uint256"
        },
        {
          "indexed": false,
          "internalType": "uint256",
          "name": "timestamp",
          "type": "uint256"
        }
      ],
      "name": "FundsWithdrawn",
      "type": "event"
    },
    {
      "anonymous": false,
      "inputs": [
        {
          "indexed": true,
          "internalType": "address",
          "name": "investor",
          "type": "address"
        },
        {
          "indexed": true,
          "internalType": "uint8",
          "name": "roundId",
          "type": "uint8"
        },
        {
          "indexed": false,
          "internalType": "uint256",
          "name": "tokenAmount",
          "type": "uint256"
        },
        {
          "indexed": false,
          "internalType": "uint256",
          "name": "coinAmount",
          "type": "uint256"
        }
      ],
      "name": "InvestorRecordUpdated",
      "type": "event"
    },
    {
      "anonymous": false,
      "inputs": [
        {
          "indexed": true,
          "internalType": "address",
          "name": "previousOwner",
          "type": "address"
        },
        {
          "indexed": true,
          "internalType": "address",
          "name": "newOwner",
          "type": "address"
        }
      ],
      "name": "OwnershipTransferred",
      "type": "event"
    },
    {
      "anonymous": false,
      "inputs": [
        {
          "indexed": false,
          "internalType": "uint256",
          "name": "pausedAt",
          "type": "uint256"
        },
        {
          "indexed": false,
          "internalType": "uint256",
          "name": "maxPauseUntil",
          "type": "uint256"
        }
      ],
      "name": "PauseInitiated",
      "type": "event"
    },
    {
      "anonymous": false,
      "inputs": [
        {
          "indexed": false,
          "internalType": "address",
          "name": "account",
          "type": "address"
        }
      ],
      "name": "Paused",
      "type": "event"
    },
    {
      "anonymous": false,
      "inputs": [
        {
          "indexed": true,
          "internalType": "uint8",
          "name": "roundId",
          "type": "uint8"
        }
      ],
      "name": "RefundComplete",
      "type": "event"
    },
    {
      "anonymous": false,
      "inputs": [
        {
          "indexed": true,
          "internalType": "uint8",
          "name": "roundId",
          "type": "uint8"
        },
        {
          "indexed": false,
          "internalType": "uint256",
          "name": "tokenPrice",
          "type": "uint256"
        },
        {
          "indexed": false,
          "internalType": "uint256",
          "name": "tokenAmount",
          "type": "uint256"
        },
        {
          "indexed": false,
          "internalType": "uint256",
          "name": "startTime",
          "type": "uint256"
        },
        {
          "indexed": false,
          "internalType": "uint256",
          "name": "endTime",
          "type": "uint256"
        }
      ],
      "name": "RoundCreated",
      "type": "event"
    },
    {
      "anonymous": false,
      "inputs": [
        {
          "indexed": true,
          "internalType": "uint8",
          "name": "roundId",
          "type": "uint8"
        },
        {
          "indexed": false,
          "internalType": "uint256",
          "name": "endTime",
          "type": "uint256"
        }
      ],
      "name": "RoundEnded",
      "type": "event"
    },
    {
      "anonymous": false,
      "inputs": [
        {
          "indexed": true,
          "internalType": "uint8",
          "name": "roundId",
          "type": "uint8"
        },
        {
          "indexed": false,
          "internalType": "uint256",
          "name": "oldEndTime",
          "type": "uint256"
        },
        {
          "indexed": false,
          "internalType": "uint256",
          "name": "newEndTime",
          "type": "uint256"
        }
      ],
      "name": "RoundExtended",
      "type": "event"
    },
    {
      "anonymous": false,
      "inputs": [
        {
          "indexed": true,
          "internalType": "address",
          "name": "buyer",
          "type": "address"
        },
        {
          "indexed": true,
          "internalType": "uint8",
          "name": "roundId",
          "type": "uint8"
        },
        {
          "indexed": false,
          "internalType": "uint256",
          "name": "coinAmount",
          "type": "uint256"
        },
        {
          "indexed": false,
          "internalType": "string",
          "name": "coinType",
          "type": "string"
        },
        {
          "indexed": false,
          "internalType": "uint256",
          "name": "tokensBought",
          "type": "uint256"
        },
        {
          "indexed": false,
          "internalType": "uint256",
          "name": "amountPaid",
          "type": "uint256"
        },
        {
          "indexed": false,
          "internalType": "uint256",
          "name": "timestamp",
          "type": "uint256"
        }
      ],
      "name": "TokensBought",
      "type": "event"
    },
    {
      "anonymous": false,
      "inputs": [
        {
          "indexed": false,
          "internalType": "uint256",
          "name": "amount",
          "type": "uint256"
        },
        {
          "indexed": true,
          "internalType": "uint8",
          "name": "roundId",
          "type": "uint8"
        }
      ],
      "name": "TokensTransferredForRound",
      "type": "event"
    },
    {
      "anonymous": false,
      "inputs": [
        {
          "indexed": false,
          "internalType": "address",
          "name": "account",
          "type": "address"
        }
      ],
      "name": "Unpaused",
      "type": "event"
    },
    {
      "anonymous": false,
      "inputs": [
        {
          "indexed": true,
          "internalType": "uint8",
          "name": "roundId",
          "type": "uint8"
        },
        {
          "indexed": false,
          "internalType": "uint256",
          "name": "amount",
          "type": "uint256"
        },
        {
          "indexed": false,
          "internalType": "uint256",
          "name": "timestamp",
          "type": "uint256"
        }
      ],
      "name": "UnsoldTokensRefunded",
      "type": "event"
    },
    {
      "anonymous": false,
      "inputs": [
        {
          "indexed": true,
          "internalType": "address",
          "name": "oldWallet",
          "type": "address"
        },
        {
          "indexed": true,
          "internalType": "address",
          "name": "newWallet",
          "type": "address"
        }
      ],
      "name": "WalletUpdated",
      "type": "event"
    },
    {
      "anonymous": false,
      "inputs": [
        {
          "indexed": true,
          "internalType": "uint8",
          "name": "roundId",
          "type": "uint8"
        }
      ],
      "name": "WithdrawalCancelled",
      "type": "event"
    },
    {
      "anonymous": false,
      "inputs": [
        {
          "indexed": true,
          "internalType": "uint8",
          "name": "roundId",
          "type": "uint8"
        },
        {
          "indexed": false,
          "internalType": "uint256",
          "name": "unlockTime",
          "type": "uint256"
        }
      ],
      "name": "WithdrawalInitiated",
      "type": "event"
    },
    {
      "stateMutability": "payable",
      "type": "fallback"
    },
    {
      "inputs": [],
      "name": "DAIInterface",
      "outputs": [
        {
          "internalType": "contract IERC20",
          "name": "",
          "type": "address"
        }
      ],
      "stateMutability": "view",
      "type": "function"
    },
    {
      "inputs": [],
      "name": "MAX_PAUSE_DURATION",
      "outputs": [
        {
          "internalType": "uint256",
          "name": "",
          "type": "uint256"
        }
      ],
      "stateMutability": "view",
      "type": "function"
    },
    {
      "inputs": [],
      "name": "USDCInterface",
      "outputs": [
        {
          "internalType": "contract IERC20",
          "name": "",
          "type": "address"
        }
      ],
      "stateMutability": "view",
      "type": "function"
    },
    {
      "inputs": [],
      "name": "USDTInterface",
      "outputs": [
        {
          "internalType": "contract IERC20",
          "name": "",
          "type": "address"
        }
      ],
      "stateMutability": "view",
      "type": "function"
    },
    {
      "inputs": [],
      "name": "WITHDRAWAL_DELAY",
      "outputs": [
        {
          "internalType": "uint256",
          "name": "",
          "type": "uint256"
        }
      ],
      "stateMutability": "view",
      "type": "function"
    },
    {
      "inputs": [
        {
          "internalType": "uint256",
          "name": "tokenAmount_",
          "type": "uint256"
        },
        {
          "internalType": "uint8",
          "name": "roundId_",
          "type": "uint8"
        }
      ],
      "name": "buyWithDAI",
      "outputs": [],
      "stateMutability": "nonpayable",
      "type": "function"
    },
    {
      "inputs": [
        {
          "internalType": "uint8",
          "name": "roundId_",
          "type": "uint8"
        },
        {
          "internalType": "uint256",
          "name": "slippageBasisPoints_",
          "type": "uint256"
        }
      ],
      "name": "buyWithETH",
      "outputs": [],
      "stateMutability": "payable",
      "type": "function"
    },
    {
      "inputs": [
        {
          "internalType": "uint8",
          "name": "roundId_",
          "type": "uint8"
        }
      ],
      "name": "buyWithETH",
      "outputs": [],
      "stateMutability": "payable",
      "type": "function"
    },
    {
      "inputs": [
        {
          "internalType": "uint256",
          "name": "tokenAmount_",
          "type": "uint256"
        },
        {
          "internalType": "uint8",
          "name": "roundId_",
          "type": "uint8"
        }
      ],
      "name": "buyWithUSDC",
      "outputs": [],
      "stateMutability": "nonpayable",
      "type": "function"
    },
    {
      "inputs": [
        {
          "internalType": "uint256",
          "name": "tokenAmount_",
          "type": "uint256"
        },
        {
          "internalType": "uint8",
          "name": "roundId_",
          "type": "uint8"
        }
      ],
      "name": "buyWithUSDT",
      "outputs": [],
      "stateMutability": "nonpayable",
      "type": "function"
    },
    {
      "inputs": [],
      "name": "cancelWithdrawal",
      "outputs": [],
      "stateMutability": "nonpayable",
      "type": "function"
    },
    {
      "inputs": [
        {
          "internalType": "uint8",
          "name": "roundId_",
          "type": "uint8"
        },
        {
          "internalType": "uint256",
          "name": "tokenPrice_",
          "type": "uint256"
        },
        {
          "internalType": "uint256",
          "name": "tokenAmount_",
          "type": "uint256"
        },
        {
          "internalType": "uint256",
          "name": "startTime_",
          "type": "uint256"
        },
        {
          "internalType": "uint256",
          "name": "endTime_",
          "type": "uint256"
        }
      ],
      "name": "createRound",
      "outputs": [],
      "stateMutability": "nonpayable",
      "type": "function"
    },
    {
      "inputs": [],
      "name": "defaultSlippageTolerance",
      "outputs": [
        {
          "internalType": "uint256",
          "name": "",
          "type": "uint256"
        }
      ],
      "stateMutability": "view",
      "type": "function"
    },
    {
      "inputs": [],
      "name": "emergencyUnpause",
      "outputs": [],
      "stateMutability": "nonpayable",
      "type": "function"
    },
    {
      "inputs": [
        {
          "internalType": "uint8",
          "name": "roundId_",
          "type": "uint8"
        }
      ],
      "name": "endRound",
      "outputs": [],
      "stateMutability": "nonpayable",
      "type": "function"
    },
    {
      "inputs": [
        {
          "internalType": "uint256",
          "name": "tokenAmount_",
          "type": "uint256"
        },
        {
          "internalType": "contract IERC20",
          "name": "coin_",
          "type": "address"
        },
        {
          "internalType": "uint8",
          "name": "roundId_",
          "type": "uint8"
        }
      ],
      "name": "estimatedCoinAmountForTokenAmount",
      "outputs": [
        {
          "internalType": "uint256",
          "name": "",
          "type": "uint256"
        }
      ],
      "stateMutability": "view",
      "type": "function"
    },
    {
      "inputs": [
        {
          "internalType": "uint256",
          "name": "tokenAmount_",
          "type": "uint256"
        },
        {
          "internalType": "uint8",
          "name": "roundId_",
          "type": "uint8"
        }
      ],
      "name": "estimatedEthAmountForTokenAmount",
      "outputs": [
        {
          "internalType": "uint256",
          "name": "",
          "type": "uint256"
        }
      ],
      "stateMutability": "view",
      "type": "function"
    },
    {
      "inputs": [
        {
          "internalType": "uint256",
          "name": "coinAmount_",
          "type": "uint256"
        },
        {
          "internalType": "contract IERC20",
          "name": "coin_",
          "type": "address"
        },
        {
          "internalType": "uint8",
          "name": "roundId_",
          "type": "uint8"
        }
      ],
      "name": "estimatedTokenAmountAvailableWithCoin",
      "outputs": [
        {
          "internalType": "uint256",
          "name": "",
          "type": "uint256"
        }
      ],
      "stateMutability": "view",
      "type": "function"
    },
    {
      "inputs": [
        {
          "internalType": "uint256",
          "name": "ethAmount_",
          "type": "uint256"
        },
        {
          "internalType": "uint8",
          "name": "roundId_",
          "type": "uint8"
        }
      ],
      "name": "estimatedTokenAmountAvailableWithETH",
      "outputs": [
        {
          "internalType": "uint256",
          "name": "",
          "type": "uint256"
        }
      ],
      "stateMutability": "view",
      "type": "function"
    },
    {
      "inputs": [
        {
          "internalType": "uint8",
          "name": "roundId_",
          "type": "uint8"
        },
        {
          "internalType": "uint256",
          "name": "newEndTime_",
          "type": "uint256"
        }
      ],
      "name": "extendRound",
      "outputs": [],
      "stateMutability": "nonpayable",
      "type": "function"
    },
    {
      "inputs": [],
      "name": "fundsRaised",
      "outputs": [
        {
          "internalType": "uint256",
          "name": "",
          "type": "uint256"
        }
      ],
      "stateMutability": "view",
      "type": "function"
    },
    {
      "inputs": [],
      "name": "getFundsRaised",
      "outputs": [
        {
          "internalType": "uint256",
          "name": "",
          "type": "uint256"
        }
      ],
      "stateMutability": "view",
      "type": "function"
    },
    {
      "inputs": [
        {
          "internalType": "address",
          "name": "investor_",
          "type": "address"
        }
      ],
      "name": "getInvestments",
      "outputs": [
        {
          "internalType": "uint256",
          "name": "_usdtAmount",
          "type": "uint256"
        },
        {
          "internalType": "uint256",
          "name": "_usdcAmount",
          "type": "uint256"
        },
        {
          "internalType": "uint256",
          "name": "_daiAmount",
          "type": "uint256"
        }
      ],
      "stateMutability": "view",
      "type": "function"
    },
    {
      "inputs": [],
      "name": "getOwner",
      "outputs": [
        {
          "internalType": "address",
          "name": "",
          "type": "address"
        }
      ],
      "stateMutability": "view",
      "type": "function"
    },
    {
      "inputs": [],
      "name": "getPrivateInvestors",
      "outputs": [
        {
          "internalType": "address[]",
          "name": "",
          "type": "address[]"
        }
      ],
      "stateMutability": "view",
      "type": "function"
    },
    {
      "inputs": [
        {
          "internalType": "uint8",
          "name": "roundId_",
          "type": "uint8"
        }
      ],
      "name": "getRemainingTimeForPresaleEnd",
      "outputs": [
        {
          "internalType": "uint256",
          "name": "",
          "type": "uint256"
        }
      ],
      "stateMutability": "view",
      "type": "function"
    },
    {
      "inputs": [
        {
          "internalType": "uint8",
          "name": "roundId_",
          "type": "uint8"
        }
      ],
      "name": "getRemainingTimeForPresaleStart",
      "outputs": [
        {
          "internalType": "uint256",
          "name": "",
          "type": "uint256"
        }
      ],
      "stateMutability": "view",
      "type": "function"
    },
    {
      "inputs": [
        {
          "internalType": "uint8",
          "name": "roundId_",
          "type": "uint8"
        }
      ],
      "name": "getRound",
      "outputs": [
        {
          "components": [
            {
              "internalType": "uint8",
              "name": "roundId",
              "type": "uint8"
            },
            {
              "internalType": "uint256",
              "name": "tokenPrice",
              "type": "uint256"
            },
            {
              "internalType": "uint256",
              "name": "tokenAmount",
              "type": "uint256"
            },
            {
              "internalType": "uint256",
              "name": "startTime",
              "type": "uint256"
            },
            {
              "internalType": "uint256",
              "name": "endTime",
              "type": "uint256"
            },
            {
              "internalType": "uint256",
              "name": "soldAmount",
              "type": "uint256"
            }
          ],
          "internalType": "struct QSEPrivateSale.Round",
          "name": "",
          "type": "tuple"
        }
      ],
      "stateMutability": "view",
      "type": "function"
    },
    {
      "inputs": [
        {
          "internalType": "address",
          "name": "investor_",
          "type": "address"
        }
      ],
      "name": "getTokenAmountForInvestor",
      "outputs": [
        {
          "internalType": "uint256",
          "name": "",
          "type": "uint256"
        }
      ],
      "stateMutability": "view",
      "type": "function"
    },
    {
      "inputs": [
        {
          "internalType": "uint8",
          "name": "roundId_",
          "type": "uint8"
        }
      ],
      "name": "getTokensAvailable",
      "outputs": [
        {
          "internalType": "uint256",
          "name": "",
          "type": "uint256"
        }
      ],
      "stateMutability": "view",
      "type": "function"
    },
    {
      "inputs": [
        {
          "internalType": "address",
          "name": "investor_",
          "type": "address"
        },
        {
          "internalType": "uint8",
          "name": "roundId_",
          "type": "uint8"
        }
      ],
      "name": "getUserRoundTokenAmount",
      "outputs": [
        {
          "internalType": "uint256",
          "name": "",
          "type": "uint256"
        }
      ],
      "stateMutability": "view",
      "type": "function"
    },
    {
      "inputs": [
        {
          "internalType": "address",
          "name": "user_",
          "type": "address"
        }
      ],
      "name": "getUserRounds",
      "outputs": [
        {
          "internalType": "uint8[]",
          "name": "",
          "type": "uint8[]"
        }
      ],
      "stateMutability": "view",
      "type": "function"
    },
    {
      "inputs": [
        {
          "internalType": "uint8",
          "name": "roundId_",
          "type": "uint8"
        }
      ],
      "name": "initiateWithdrawal",
      "outputs": [],
      "stateMutability": "nonpayable",
      "type": "function"
    },
    {
      "inputs": [
        {
          "internalType": "address",
          "name": "",
          "type": "address"
        },
        {
          "internalType": "address",
          "name": "",
          "type": "address"
        }
      ],
      "name": "investments",
      "outputs": [
        {
          "internalType": "uint256",
          "name": "",
          "type": "uint256"
        }
      ],
      "stateMutability": "view",
      "type": "function"
    },
    {
      "inputs": [
        {
          "internalType": "address",
          "name": "",
          "type": "address"
        }
      ],
      "name": "investorTokenBalance",
      "outputs": [
        {
          "internalType": "uint256",
          "name": "",
          "type": "uint256"
        }
      ],
      "stateMutability": "view",
      "type": "function"
    },
    {
      "inputs": [],
      "name": "lastRefundedIndex",
      "outputs": [
        {
          "internalType": "uint256",
          "name": "",
          "type": "uint256"
        }
      ],
      "stateMutability": "view",
      "type": "function"
    },
    {
      "inputs": [],
      "name": "maxSlippageTolerance",
      "outputs": [
        {
          "internalType": "uint256",
          "name": "",
          "type": "uint256"
        }
      ],
      "stateMutability": "view",
      "type": "function"
    },
    {
      "inputs": [],
      "name": "pause",
      "outputs": [],
      "stateMutability": "nonpayable",
      "type": "function"
    },
    {
      "inputs": [],
      "name": "paused",
      "outputs": [
        {
          "internalType": "bool",
          "name": "",
          "type": "bool"
        }
      ],
      "stateMutability": "view",
      "type": "function"
    },
    {
      "inputs": [],
      "name": "pausedAt",
      "outputs": [
        {
          "internalType": "uint256",
          "name": "",
          "type": "uint256"
        }
      ],
      "stateMutability": "view",
      "type": "function"
    },
    {
      "inputs": [],
      "name": "pendingWithdrawalRound",
      "outputs": [
        {
          "internalType": "uint8",
          "name": "",
          "type": "uint8"
        }
      ],
      "stateMutability": "view",
      "type": "function"
    },
    {
      "inputs": [
        {
          "internalType": "uint256",
          "name": "",
          "type": "uint256"
        }
      ],
      "name": "privateInvestors",
      "outputs": [
        {
          "internalType": "address",
          "name": "",
          "type": "address"
        }
      ],
      "stateMutability": "view",
      "type": "function"
    },
    {
      "inputs": [
        {
          "internalType": "contract IERC20",
          "name": "token_",
          "type": "address"
        },
        {
          "internalType": "uint256",
          "name": "amount_",
          "type": "uint256"
        }
      ],
      "name": "recoverToken",
      "outputs": [],
      "stateMutability": "nonpayable",
      "type": "function"
    },
    {
      "inputs": [
        {
          "internalType": "uint8",
          "name": "roundId_",
          "type": "uint8"
        },
        {
          "internalType": "uint256",
          "name": "batchSize_",
          "type": "uint256"
        }
      ],
      "name": "refundBatch",
      "outputs": [],
      "stateMutability": "nonpayable",
      "type": "function"
    },
    {
      "inputs": [
        {
          "internalType": "uint8",
          "name": "roundId_",
          "type": "uint8"
        }
      ],
      "name": "refundUnsoldToken",
      "outputs": [],
      "stateMutability": "nonpayable",
      "type": "function"
    },
    {
      "inputs": [
        {
          "internalType": "uint8",
          "name": "",
          "type": "uint8"
        }
      ],
      "name": "rounds",
      "outputs": [
        {
          "internalType": "uint8",
          "name": "roundId",
          "type": "uint8"
        },
        {
          "internalType": "uint256",
          "name": "tokenPrice",
          "type": "uint256"
        },
        {
          "internalType": "uint256",
          "name": "tokenAmount",
          "type": "uint256"
        },
        {
          "internalType": "uint256",
          "name": "startTime",
          "type": "uint256"
        },
        {
          "internalType": "uint256",
          "name": "endTime",
          "type": "uint256"
        },
        {
          "internalType": "uint256",
          "name": "soldAmount",
          "type": "uint256"
        }
      ],
      "stateMutability": "view",
      "type": "function"
    },
    {
      "inputs": [],
      "name": "router",
      "outputs": [
        {
          "internalType": "contract IUniswapV2Router02",
          "name": "",
          "type": "address"
        }
      ],
      "stateMutability": "view",
      "type": "function"
    },
    {
      "inputs": [
        {
          "internalType": "uint256",
          "name": "slippageBasisPoints_",
          "type": "uint256"
        }
      ],
      "name": "setDefaultSlippageTolerance",
      "outputs": [],
      "stateMutability": "nonpayable",
      "type": "function"
    },
    {
      "inputs": [
        {
          "internalType": "address",
          "name": "wallet_",
          "type": "address"
        }
      ],
      "name": "setWallet",
      "outputs": [],
      "stateMutability": "nonpayable",
      "type": "function"
    },
    {
      "inputs": [],
      "name": "token",
      "outputs": [
        {
          "internalType": "contract QSE",
          "name": "",
          "type": "address"
        }
      ],
      "stateMutability": "view",
      "type": "function"
    },
    {
      "inputs": [
        {
          "internalType": "address",
          "name": "newOwner_",
          "type": "address"
        }
      ],
      "name": "transferOwnership",
      "outputs": [],
      "stateMutability": "nonpayable",
      "type": "function"
    },
    {
      "inputs": [],
      "name": "unpause",
      "outputs": [],
      "stateMutability": "nonpayable",
      "type": "function"
    },
    {
      "inputs": [
        {
          "internalType": "address",
          "name": "",
          "type": "address"
        },
        {
          "internalType": "uint8",
          "name": "",
          "type": "uint8"
        }
      ],
      "name": "userRoundTokenAmount",
      "outputs": [
        {
          "internalType": "uint256",
          "name": "",
          "type": "uint256"
        }
      ],
      "stateMutability": "view",
      "type": "function"
    },
    {
      "inputs": [
        {
          "internalType": "address",
          "name": "",
          "type": "address"
        },
        {
          "internalType": "uint256",
          "name": "",
          "type": "uint256"
        }
      ],
      "name": "userRounds",
      "outputs": [
        {
          "internalType": "uint8",
          "name": "",
          "type": "uint8"
        }
      ],
      "stateMutability": "view",
      "type": "function"
    },
    {
      "inputs": [],
      "name": "wallet",
      "outputs": [
        {
          "internalType": "address",
          "name": "",
          "type": "address"
        }
      ],
      "stateMutability": "view",
      "type": "function"
    },
    {
      "inputs": [],
      "name": "withdraw",
      "outputs": [],
      "stateMutability": "nonpayable",
      "type": "function"
    },
    {
      "inputs": [],
      "name": "withdrawStartTime",
      "outputs": [
        {
          "internalType": "uint256",
          "name": "",
          "type": "uint256"
        }
      ],
      "stateMutability": "view",
      "type": "function"
    },
    {
      "inputs": [],
      "name": "withdrawalInitiated",
      "outputs": [
        {
          "internalType": "bool",
          "name": "",
          "type": "bool"
        }
      ],
      "stateMutability": "view",
      "type": "function"
    },
    {
      "stateMutability": "payable",
      "type": "receive"
    }
  ],
  "bytecode": "0x6101a0346102ee57601f61440538819003918201601f19168301916001600160401b038311848410176102f3578084926020946040528339810103126102ee57516001600160a01b038116908190036102ee576001808055461480156102d35773dac17f958d2ee523a2206206994597c13d831ec7905b81608052806000146102b95773a0b86991c6218b36c1d19d4a2e9eb0ce3606eb485b8060a0528160001461029e57736b175474e89094c44da98b954eedeac495271d0f915b8260c05260001461028357737a250d5630b4cf539739df2c5dacb4c659f2488d925b60e08490526001600160a01b03908116610120529081166101405290811661016052166101805261012c600a556103e8600b55801561024c57600280546001600160a01b03191633179055610100526040516140fb908161030a823960805181818161293d01528181612d9401526137a7015260a05181505060c05181505060e0518150506101005181818161037e01528181610e64015281816112280152818161211801528181612a0501526130e90152610120518181816102d701528181610408015281816108280152818161192101528181611d280152818161286801528181612cdb0152818161381d0152613f74015261014051818181610303015281816107fe0152818161110601528181611d7f01528181612f470152613fbf01526101605181818161032c0152818161084d015281816116c901528181611dd60152818161303601526140120152610180518181816103c3015281816128da01528181612d2c015261373f0152f35b60405162461bcd60e51b815260206004820152600f60248201526e496e76616c6964206164647265737360881b6044820152606490fd5b73c532a74256d3db42d0bf7a0400fefdbad7694008926100dd565b73ff34b3d4aee8ddcd6f9afffb6fe49bd371b8a357916100bb565b7394a9d9ac8a22534e3faca9f4e7f2e2cf85d5e4c8610098565b73aa8e23fb1079ea71e0a56f48a2aa51851d8433d090610076565b600080fd5b634e487b7160e01b600052604160045260246000fdfe6080806040526004361015610011575b005b60003560e01c908163079cff0a14613465575080630ebb172a14613448578063102d800a146133965780631909d0d514610f085780631a600086146130655780631ebf3f9e146130205780632261128014612f7657806325312e5414612f315780632799657d14612f135780632c79227614612e995780632e55d0f214612e7b578063302a82fd14612cb357806331ea891714612c8d5780633254135014612c745780633659e14114612b9e57806338bcc0ce146127e35780633a506294146121bc5780633b4b893f1461207a5780633ccfd60b14611cbd5780633f4ba83a14611c525780634a2499aa14611c2c5780634a4e3bd514611b6b578063521eb27314611b42578063558c9cf9146118ea5780635a86946b146116925780635bf7c0ad146116795780635c975abb146116545780635d7984d3146115e65780636681b9fd14610eea578063691f214114610b4f5780637e54afa4146115a45780637ec77c6714611586578063837dd7181461151b5780638456cb5914611461578063893d20e8146114385780638a0420d4146110cf57806392a7843c146110b1578063977800201461105057806398bac4d014610fd9578063a406697b14610f42578063ac1f1e9c14610f08578063b0e66aca14610eea578063b29a814014610e2c578063b4e5a83014610d64578063ba8721be14610d43578063cd3c4c9a14610ba0578063d8e534c014610b4f578063dd1f759614610af4578063dd4863f614610793578063de0f4ddb14610775578063deaa59df146105fd578063e3b57d62146104ef578063efee4c9f146104c4578063f2fde38b14610437578063f597573f146103f2578063f887ea40146103ad578063fc0c546a146103685763fc73c86e1461029857005b346103635760203660031901126103635760606001600160a01b036102bb613480565b166000908152600d602090815260408083206001600160a01b037f000000000000000000000000000000000000000000000000000000000000000081168552908352818420547f000000000000000000000000000000000000000000000000000000000000000082168552828520547f000000000000000000000000000000000000000000000000000000000000000090921685529382902054825194855292840152820152f35b600080fd5b34610363576000366003190112610363576040517f00000000000000000000000000000000000000000000000000000000000000006001600160a01b03168152602090f35b34610363576000366003190112610363576040517f00000000000000000000000000000000000000000000000000000000000000006001600160a01b03168152602090f35b34610363576000366003190112610363576040517f00000000000000000000000000000000000000000000000000000000000000006001600160a01b03168152602090f35b3461036357602036600319011261036357610450613480565b600254906001600160a01b03821690338290036104b3576001600160a01b031691829061047e821515613a56565b6001600160a01b031916176002557f8be0079c531659141344cd1fd0a4f28419497f9722a3daafe3b4186f6b6457e0600080a3005b6330cd747160e01b60005260046000fd5b346103635760203660031901126103635760206104e76104e2613496565b613a94565b604051908152f35b3461036357604036600319011261036357610508613496565b6024359061052d61051882613b88565b600381015442101590816105ee575b506135ec565b6002546001600160a01b031633036104b357600461054a82613b88565b019182549283821115610590577f20778b91d8b6efc647f02564a71021044d1b2b2a17a375c8f0ff2158cab8be41928260409360ff9355835195865260208601521692a2005b60405162461bcd60e51b815260206004820152603060248201527f4e657720656e642074696d65206d757374206265206c61746572207468616e2060448201526f63757272656e7420656e642074696d6560801b6064820152608490fd5b60049150015442111584610527565b3461036357602036600319011261036357610616613480565b6002546001600160a01b031633036104b3576001600160a01b0381169061063e821515613a56565b6004546001600160a01b0381169183831461072f573084146106e9573b610695576001600160a01b03191682176004557f0f37c6733428a3a65d46b7f1853a5ce4bfa3cf92d25322507a50bf23a0b5a0a8600080a3005b604051632ed86df760e21b815260206004820152602560248201527f57616c6c6574206d75737420626520616e20454f412c206e6f74206120636f6e6044820152641d1c9858dd60da1b6064820152608490fd5b604051632ed86df760e21b815260206004820152601d60248201527f43616e6e6f742073657420636f6e74726163742061732077616c6c65740000006044820152606490fd5b604051632ed86df760e21b815260206004820152601a60248201527f4e65772077616c6c65742073616d652061732063757272656e740000000000006044820152606490fd5b34610363576000366003190112610363576020600a54604051908152f35b34610363576040366003190112610363576107ac613496565b6024356107b7613c53565b6002546001600160a01b031633036104b35760046107d483613b88565b0154421115610a9357600654906107eb818361393c565b90600554809211600014610a825750905b7f0000000000000000000000000000000000000000000000000000000000000000906001600160a01b037f0000000000000000000000000000000000000000000000000000000000000000818116927f000000000000000000000000000000000000000000000000000000000000000083811693909291908616905b87811061092057888880600655600554809114610896575b60018055005b60006003556000600555806108dc575b5060ff906000600655167ff0adc199c941052811f038ba25c422fa02be24448ae61caf139511c77bad71c5600080a28080610890565b60056000527f036b6384b5eca791c62761152d0c79bb0604c104a5fb6f4eb0703f3154bb3db0908101905b81811061091457506108a6565b60008155600101610907565b8061092c6001926134ea565b838060a01b0391549060031b1c1680600052600d602052806040806000206000908b8252602052205480610a39575b50600052600d6020528060408060002060009087825260205220548a816109ef575b5050600052600d6020526040806000206000908982526020522054806109a6575b505001610878565b60406000805160206140868339815191529183600052600d60205260008280822082908d825260205220556109dc81858b613ec4565b8151908152426020820152a28a8061099e565b81610a25600080516020614086833981519152938560409481600052600d6020526000868d818320839182526020522055613ec4565b8151908152426020820152a2808c8a61097d565b60406000805160206140868339815191529183600052600d6020526000828d818320839182526020522055610a6f81858b613ec4565b8151908152426020820152a2808c61095b565b610a8d91508261393c565b906107fc565b60405162461bcd60e51b815260206004820152603360248201527f43616e6e6f7420726566756e6420626563617573652070726573616c652069736044820152721039ba34b6361034b710383937b3b932b9b99760691b6064820152608490fd5b3461036357604036600319011261036357610b0d613480565b6001600160a01b0316600090815260106020526040902080546024359081101561036357610b3f60ff91602093613558565b90549060031b1c16604051908152f35b3461036357604036600319011261036357610b68613480565b610b706134a6565b9060018060a01b0316600052600f60205260ff604060002091166000526020526020604060002054604051908152f35b3461036357602036600319011261036357610bb9613496565b6002546001600160a01b031633036104b3576004610bd682613b88565b0154421115610ce1576008549060ff8260081c16610c9c576004546001600160a01b031615610c6657615460420190814211610c50578161010060ff6020937f3b73acfc4e4af427a3b4fb462ec572b39227c771747955d295b826be5d5984169560075516809561ffff19161717600855604051908152a2005b634e487b7160e01b600052601160045260246000fd5b60405162461bcd60e51b815260206004820152600e60248201526d15d85b1b195d081b9bdd081cd95d60921b6044820152606490fd5b60405162461bcd60e51b815260206004820152601c60248201527f5769746864726177616c20616c726561647920696e69746961746564000000006044820152606490fd5b60405162461bcd60e51b815260206004820152603460248201527f43616e6e6f7420776974686472617720626563617573652070726573616c65206044820152736973207374696c6c20696e2070726f677265737360601b6064820152608490fd5b3461036357600036600319011261036357602060ff60085416604051908152f35b346103635760203660031901126103635760c0610db4610d82613496565b600060a0604051610d9281613598565b8281528260208201528260408201528260608201528260808201520152613b88565b604051610dc081613598565b60ff825416918282526001810154602083019081526002820154604084019081526003830154916060850192835260a0600560048601549560808801968752015495019485526040519586525160208601525160408501525160608401525160808301525160a0820152f35b3461036357604036600319011261036357610e45613480565b6002546001600160a01b031633036104b3576001600160a01b038181167f000000000000000000000000000000000000000000000000000000000000000090911614610ea55760045461000f91602435916001600160a01b031690613ec4565b60405162461bcd60e51b815260206004820152601c60248201527f43616e6e6f74207265636f7665722070726573616c6520746f6b656e000000006044820152606490fd5b34610363576000366003190112610363576020600354604051908152f35b34610363576020366003190112610363576001600160a01b03610f29613480565b16600052600e6020526020604060002054604051908152f35b346103635760003660031901126103635760405160058054808352600091825260208301917f036b6384b5eca791c62761152d0c79bb0604c104a5fb6f4eb0703f3154bb3db091905b818110610fba57610fb685610fa2818703826135ca565b60405191829160208352602083019061351b565b0390f35b82546001600160a01b0316845260209093019260019283019201610f8b565b34610363576020366003190112610363576003610ffc610ff7613496565b613b88565b015480421015611013576104e760209142906139d4565b60405162461bcd60e51b8152602060048201526015602482015274149bdd5b9908185b1c9958591e481cdd185c9d1959605a1b6044820152606490fd5b3461036357604036600319011261036357611069613480565b602435906001600160a01b03821682036103635760018060a01b0316600052600d60205260406000209060018060a01b03166000526020526020604060002054604051908152f35b34610363576000366003190112610363576020600654604051908152f35b34610363576040366003190112610363576004356110eb6134a6565b6110f3613a13565b15801561140b575b61110490613949565b7f00000000000000000000000000000000000000000000000000000000000000009061112e613c53565b611136613a13565b1580156113de575b61114790613949565b61116761115382613b88565b600381015442101590816113cf57506135ec565b6111728183856138f9565b604051636eb1769f60e11b81523360048201523060248201529092906001600160a01b03821690602081604481855afa9081156113535760009161139d575b50841161135f576040516370a0823160e01b8152336004820152602081602481855afa90811561135357600091611321575b5084116112e457611221838561125a946111fc83613a94565b891115806112db575b61120e90613988565b61121a82303384613ac8565b8833613c75565b61125585337f00000000000000000000000000000000000000000000000000000000000000006001600160a01b0316613ec4565b613f66565b916040519381855260a060208601528351938460a087015260005b8581106112c55750509160ff916000805160206140a683398151915293600060c0878901015260408701526060860152426080860152169260c0813394601f80199101168101030190a360018055005b80602080928401015160c0828a01015201611275565b50881515611205565b60405162461bcd60e51b815260206004820152601560248201527424b739bab33334b1b4b2b73a103130b630b731b29760591b6044820152606490fd5b90506020813d60201161134b575b8161133c602093836135ca565b810103126103635751866111e3565b3d915061132f565b6040513d6000823e3d90fd5b60405162461bcd60e51b8152602060048201526016602482015275496e73756666696369656e7420616c6c6f77616e636560501b6044820152606490fd5b90506020813d6020116113c7575b816113b8602093836135ca565b810103126103635751866111b1565b3d91506113ab565b60049150015442111585610527565b50600954801515806113f2575b905061113e565b506203f4808101809111610c50576111479042116113eb565b506009548015158061141f575b90506110fb565b506203f4808101809111610c5057611104904211611418565b34610363576000366003190112610363576002546040516001600160a01b039091168152602090f35b34610363576000366003190112610363576002546001600160a01b031633036104b35742600955611490613a13565b61150a57600160ff1960005416176000557f62e78cea01bee320cd4e420270b5ea74000d11b0c9f74754ebdbfc544b05a2586020604051338152a16203f4804201804211610c505760407f6d8ee45cd487ab7aa2d5fc59217a534183ba856264d06e599d7005614bbec299918151904282526020820152a1005b63d93c066560e01b60005260046000fd5b34610363576020366003190112610363576004611539610ff7613496565b015480421161154f576104e760209142906139d4565b60405162461bcd60e51b815260206004820152600f60248201526e149bdd5b99081a185cc8195b991959608a1b6044820152606490fd5b34610363576000366003190112610363576020600b54604051908152f35b3461036357602036600319011261036357600435600554811015610363576115cd6020916134ea565b905460405160039290921b1c6001600160a01b03168152f35b346103635760203660031901126103635760ff611601613496565b16600052600c60205260c0604060002060ff8154169060018101549060028101546003820154906005600484015493015493604051958652602086015260408501526060840152608083015260a0820152f35b3461036357600036600319011261036357602061166f613a13565b6040519015158152f35b346103635760206104e761168c366134b6565b916139e1565b34610363576040366003190112610363576004356116ae6134a6565b6116b6613a13565b1580156118bd575b6116c790613949565b7f0000000000000000000000000000000000000000000000000000000000000000906116f1613c53565b6116f9613a13565b158015611890575b61170a90613949565b61171661115382613b88565b6117218183856138f9565b604051636eb1769f60e11b81523360048201523060248201529092906001600160a01b03821690602081604481855afa9081156113535760009161185e575b50841161135f576040516370a0823160e01b8152336004820152602081602481855afa9081156113535760009161182c575b5084116112e45761122183856117ab946111fc83613a94565b916040519381855260a060208601528351938460a087015260005b8581106118165750509160ff916000805160206140a683398151915293600060c0878901015260408701526060860152426080860152169260c0813394601f80199101168101030190a360018055005b80602080928401015160c0828a010152016117c6565b90506020813d602011611856575b81611847602093836135ca565b81010312610363575186611792565b3d915061183a565b90506020813d602011611888575b81611879602093836135ca565b81010312610363575186611760565b3d915061186c565b50600954801515806118a4575b9050611701565b506203f4808101809111610c505761170a90421161189d565b50600954801515806118d1575b90506116be565b506203f4808101809111610c50576116c79042116118ca565b34610363576040366003190112610363576004356119066134a6565b61190e613a13565b158015611b15575b61191f90613949565b7f000000000000000000000000000000000000000000000000000000000000000090611949613c53565b611951613a13565b158015611ae8575b61196290613949565b61196e61115382613b88565b6119798183856138f9565b604051636eb1769f60e11b81523360048201523060248201529092906001600160a01b03821690602081604481855afa90811561135357600091611ab6575b50841161135f576040516370a0823160e01b8152336004820152602081602481855afa90811561135357600091611a84575b5084116112e4576112218385611a03946111fc83613a94565b916040519381855260a060208601528351938460a087015260005b858110611a6e5750509160ff916000805160206140a683398151915293600060c0878901015260408701526060860152426080860152169260c0813394601f80199101168101030190a360018055005b80602080928401015160c0828a01015201611a1e565b90506020813d602011611aae575b81611a9f602093836135ca565b810103126103635751866119ea565b3d9150611a92565b90506020813d602011611ae0575b81611ad1602093836135ca565b810103126103635751866119b8565b3d9150611ac4565b5060095480151580611afc575b9050611959565b506203f4808101809111610c5057611962904211611af5565b5060095480151580611b29575b9050611916565b506203f4808101809111610c505761191f904211611b22565b34610363576000366003190112610363576004546040516001600160a01b039091168152602090f35b346103635760003660031901126103635760005460ff811615610363576009548015610363576203f4808101809111610c5057421115610363576000600955611bb2613a13565b15611c1b5760ff19166000557f5db9ee0a495bf2e6ff9c91a7834c1ba4fdd244a5e8aa4e537bd38aeae4b073aa6020604051338152a1604080513381524260208201527fdacac23d353cc4fe05be85350ed1e8227ed9edf2323b7cb5aad3174e6a9ce1d69190a1005b638dfc202b60e01b60005260046000fd5b3461036357600036600319011261036357602060ff60085460081c166040519015158152f35b34610363576000366003190112610363576002546001600160a01b031633036104b3576000600955611c82613a13565b15611c1b5760ff19600054166000557f5db9ee0a495bf2e6ff9c91a7834c1ba4fdd244a5e8aa4e537bd38aeae4b073aa6020604051338152a1005b3461036357600036600319011261036357611cd6613c53565b6002546001600160a01b031633036104b35760085460ff8160081c161561203a576004546001600160a01b03168015610363576007544210611ff9576040516370a0823160e01b8152306004820152917f00000000000000000000000000000000000000000000000000000000000000006020846024816001600160a01b0385165afa93841561135357600094611fc5575b506040516370a0823160e01b8152306004820152907f00000000000000000000000000000000000000000000000000000000000000006020836024816001600160a01b0385165afa92831561135357600093611f91575b506040516370a0823160e01b8152306004820152937f000000000000000000000000000000000000000000000000000000000000000092906020866024816001600160a01b0388165afa95861561135357600096611f5a575b5087159687158098611f51575b8015611f48575b15611f03577f8c827908e97ab3f434a755ed9bc25f77b9201c45679b4c6f35488a356fd744e1978992600060075561ffff1916600855611ef2575b5050508280611ed3575b50508280611eb4575b50506000600355600454604080519586526020860192909252908401919091524260608401526001600160a01b031691608090a260018055005b600454611ecc926001600160a01b0390911690613ec4565b8482611e7a565b600454611eeb926001600160a01b0390911690613ec4565b8582611e71565b611efb92613ec4565b868681611e67565b60405162461bcd60e51b815260206004820152601e60248201527f4e6f2066756e647320617661696c61626c6520746f20776974686472617700006044820152606490fd5b50861515611e2c565b50851515611e25565b90956020823d602011611f89575b81611f75602093836135ca565b81010312611f865750519488611e18565b80fd5b3d9150611f68565b90926020823d602011611fbd575b81611fac602093836135ca565b81010312611f865750519186611dbf565b3d9150611f9f565b90936020823d602011611ff1575b81611fe0602093836135ca565b81010312611f865750519284611d68565b3d9150611fd3565b60405162461bcd60e51b8152602060048201526019602482015278151a5b595b1bd8dac81c195c9a5bd9081b9bdd08195b991959603a1b6044820152606490fd5b60405162461bcd60e51b815260206004820152601860248201527715da5d1a191c985dd85b081b9bdd081a5b9a5d1a585d195960421b6044820152606490fd5b3461036357602036600319011261036357612093613496565b6002546001600160a01b031633036104b3576120ae81613b88565b90600482015442106121855760028201916120d06005845492015480926139d4565b92831561214d57556004547f66f85df03ef293605822de8bf55eb784795ba36a9b832b5cc8b613c829f17e2d9160409160ff919061213d9086906001600160a01b03908116907f000000000000000000000000000000000000000000000000000000000000000016613ec4565b82519485524260208601521692a2005b60405162461bcd60e51b815260206004820152601060248201526f4e6f20756e736f6c6420746f6b656e7360801b6044820152606490fd5b60405162461bcd60e51b815260206004820152600f60248201526e149bdd5b99081b9bdd08195b991959608a1b6044820152606490fd5b34610363576020366003190112610363576001600160a01b036121dd613480565b166000526010602052604060002060405190818260208354928381520180936000526020600020926000905b80601f83011061263b57612322945491818110612627575b818110612610575b8181106125f9575b8181106125e2575b8181106125cc575b8181106125b5575b81811061259e575b818110612587575b818110612570575b818110612559575b818110612542575b81811061252b575b818110612514575b8181106124fd575b8181106124e6575b8181106124cf575b8181106124b8575b8181106124a1575b81811061248a575b818110612473575b81811061245c575b818110612445575b81811061242e575b818110612417575b818110612400575b8181106123e9575b8181106123d2575b8181106123bb575b8181106123a4575b81811061238d575b818110612376575b10612368575b5093929303826135ca565b6040519182916020830190602084525180915260408301919060005b81811061234c575050500390f35b825160ff1684528594506020938401939092019160010161233e565b60f81c815260200185612317565b92602060019160ff8560f01c168152019301612311565b92602060019160ff8560e81c168152019301612309565b92602060019160ff8560e01c168152019301612301565b92602060019160ff8560d81c1681520193016122f9565b92602060019160ff8560d01c1681520193016122f1565b92602060019160ff8560c81c1681520193016122e9565b92602060019160ff8560c01c1681520193016122e1565b92602060019160ff8560b81c1681520193016122d9565b92602060019160ff8560b01c1681520193016122d1565b92602060019160ff8560a81c1681520193016122c9565b92602060019160ff8560a01c1681520193016122c1565b92602060019160ff8560981c1681520193016122b9565b92602060019160ff8560901c1681520193016122b1565b92602060019160ff8560881c1681520193016122a9565b92602060019160ff8560801c1681520193016122a1565b92602060019160ff8560781c168152019301612299565b92602060019160ff8560701c168152019301612291565b92602060019160ff8560681c168152019301612289565b92602060019160ff8560601c168152019301612281565b92602060019160ff8560581c168152019301612279565b92602060019160ff8560501c168152019301612271565b92602060019160ff8560481c168152019301612269565b92602060019160ff8560401c168152019301612261565b92602060019160ff8560381c168152019301612259565b92602060019160ff8560301c168152019301612251565b92602060019160ff8560281c168152019301612249565b92602060019160ff85831c168152019301612241565b92602060019160ff8560181c168152019301612239565b92602060019160ff8560101c168152019301612231565b92602060019160ff8560081c168152019301612229565b92602060019160ff85168152019301612221565b916020919350610400600191865460ff8116825260ff8160081c168583015260ff8160101c16604083015260ff8160181c16606083015260ff81861c16608083015260ff8160281c1660a083015260ff8160301c1660c083015260ff8160381c1660e083015260ff8160401c1661010083015260ff8160481c1661012083015260ff8160501c1661014083015260ff8160581c1661016083015260ff8160601c1661018083015260ff8160681c166101a083015260ff8160701c166101c083015260ff8160781c166101e083015260ff8160801c1661020083015260ff8160881c1661022083015260ff8160901c1661024083015260ff8160981c1661026083015260ff8160a01c1661028083015260ff8160a81c166102a083015260ff8160b01c166102c083015260ff8160b81c166102e083015260ff8160c01c1661030083015260ff8160c81c1661032083015260ff8160d01c1661034083015260ff8160d81c1661036083015260ff8160e01c1661038083015260ff8160e81c166103a083015260ff8160f01c166103c083015260f81c6103e0820152019401920185929391612209565b6020366003190112610363576127f7613496565b6127ff613c53565b612807613a13565b158015612b71575b61281890613949565b61283861282482613b88565b60038101544210159081612b6257506135ec565b600a5490612846813461370a565b9161285082613a94565b83111580612b59575b61286290613988565b61288e827f000000000000000000000000000000000000000000000000000000000000000080956138f9565b9061271003906127108211610c5057612710916128aa916138b2565b04906060916040516128bc84826135ca565b60028152601f1984013660208301376040516315ab88c960e31b81527f00000000000000000000000000000000000000000000000000000000000000006001600160a01b031690602081600481855afa90811561135357600091612b2a575b506129258361364d565b6001600160a01b03909116905261293b8261365a565b7f00000000000000000000000000000000000000000000000000000000000000006001600160a01b0316905242610384810192908310610c50576000916129a691604051809581948293637ff36ab560e01b845289600485015260806024850152608484019061351b565b903060448401526064830152039134905af190811561135357600091612b07575b50600181511115612ac2576129db9061365a565b51908110612a7d5760ff926129fe83836129f68289836139e1565b978833613c75565b612a3285337f00000000000000000000000000000000000000000000000000000000000000006001600160a01b0316613ec4565b6040519434865260a06020870152600360a08701526208aa8960eb1b60c0870152604086015284015242608084015216906000805160206140a683398151915260e03392a360018055005b60405162461bcd60e51b815260206004820152601a60248201527f496e73756666696369656e7420555344542072656365697665640000000000006044820152606490fd5b60405162461bcd60e51b815260206004820152601d60248201527f53776170206661696c65642c206e6f20555344542072656365697665640000006044820152606490fd5b612b2491503d806000833e612b1c81836135ca565b81019061366a565b856129c7565b612b4c915060203d602011612b52575b612b4481836135ca565b81019061362e565b8761291b565b503d612b3a565b50821515612859565b60049150015442111583610527565b5060095480151580612b85575b905061280f565b506203f4808101809111610c5057612818904211612b7e565b604036600319011261036357612bb2613496565b602435612bbd613c53565b612bc5613a13565b158015612c47575b612bd690613949565b612be261051883613b88565b600b548111612c07578015612bfd57905b612846813461370a565b50600a5490612bf3565b60405162461bcd60e51b8152602060048201526018602482015277536c6970706167652065786365656473206d6178696d756d60401b6044820152606490fd5b5060095480151580612c5b575b9050612bcd565b506203f4808101809111610c5057612bd6904211612c54565b346103635760206104e7612c87366134b6565b916138f9565b346103635760403660031901126103635760206104e7612cab6134a6565b60043561370a565b3461036357604036600319011261036357612d02612ccf6134a6565b612cd881613b88565b507f00000000000000000000000000000000000000000000000000000000000000006004356138f9565b604051612d106060826135ca565b6002815260403660208301376040516315ab88c960e31b8152907f00000000000000000000000000000000000000000000000000000000000000006001600160a01b0316602083600481845afa93841561135357612ddd946000948591612e5c575b50612d7c8461364d565b6001600160a01b039091169052612d928361365a565b7f00000000000000000000000000000000000000000000000000000000000000006001600160a01b031690526040516307c0329d60e21b8152948593849283929190600484016136f0565b03915afa90811561135357600091612e41575b50805115612e0c57612e0360209161364d565b51604051908152f35b60405162461bcd60e51b815260206004820152600d60248201526c24b73b30b634b2103830ba341760991b6044820152606490fd5b612e5691503d806000833e612b1c81836135ca565b81612df0565b612e75915060203d602011612b5257612b4481836135ca565b86612d72565b34610363576000366003190112610363576020600954604051908152f35b3461036357602036600319011261036357612eb2613496565b6002546001600160a01b031633036104b35780612ed361051860ff93613b88565b1680600052600c602052426004604060002001557fb0e2566fc618ae595f091d9f0dfbf8e9c90ceecb78b5ffb4f32aad81571deda36020604051428152a2005b346103635760003660031901126103635760206040516203f4808152f35b34610363576000366003190112610363576040517f00000000000000000000000000000000000000000000000000000000000000006001600160a01b03168152602090f35b34610363576000366003190112610363576002546001600160a01b031633036104b35760085460ff8160081c1615612fe15760ff90600060075561ffff198116600855167f026d6b8f9f405a69a2f59a912aaf5f8e21d687ab351ed944ea9ed1fce1083e0f600080a2005b60405162461bcd60e51b8152602060048201526017602482015276139bc81dda5d1a191c985dd85b081d1bc818d85b98d95b604a1b6044820152606490fd5b34610363576000366003190112610363576040517f00000000000000000000000000000000000000000000000000000000000000006001600160a01b03168152602090f35b346103635760a03660031901126103635761307e613496565b600254608435916064359160243591604435916001600160a01b031633036104b35760ff169384600052600c60205260036040600020015461335a5783421080613351575b156133135782156132d857811561329c576040516370a0823160e01b81523360048201527f00000000000000000000000000000000000000000000000000000000000000006001600160a01b03169190602081602481865afa8015611353578491600091613267575b501061322b578260209461321f7f514e0b9e0b5c44a1d4c03cd1b48f2c10d0342d9c5d88f72273d9b430dc652b7d937f9abeff25d2196ca5af00be0630867aa83ad7a2055b9adab5d9d28e5d39ae9efd986131fc858c9860405161318f81613598565b8a815260058b8e83018a815260408401868152606085019089825260808601928b845260a0870194600086526000526020600c905260ff604060002097511660ff198854161787555160018701555160028601555160038501555160048401555191015530903390613ac8565b604051948594859094939260609260808301968352602083015260408201520152565b0390a2604051908152a2005b60405162461bcd60e51b8152602060048201526014602482015273496e73756666696369656e742062616c616e636560601b6044820152606490fd5b9150506020813d602011613294575b81613283602093836135ca565b81010312610363578390518861312c565b3d9150613276565b60405162461bcd60e51b8152602060048201526014602482015273125b9d985b1a59081d1bdad95b88185b5bdd5b9d60621b6044820152606490fd5b60405162461bcd60e51b8152602060048201526013602482015272496e76616c696420746f6b656e20707269636560681b6044820152606490fd5b60405162461bcd60e51b8152602060048201526016602482015275125b9d985b1a59081d1a5b5948199bdc881c9bdd5b9960521b6044820152606490fd5b508084106130c3565b60405162461bcd60e51b8152602060048201526014602482015273526f756e6420616c72656164792065786973747360601b6044820152606490fd5b3461036357602036600319011261036357600254600435906001600160a01b031633036104b3576107d08111613404576040817f3c9ab8b9da60f26f1002b24bccc26cc524898259928e7c042202fc1dee55118192600b558060011c9081600a5582519182526020820152a1005b606460405162461bcd60e51b815260206004820152602060248201527f45786365656473206d6178696d756d20616c6c6f77656420736c6970706167656044820152fd5b346103635760003660031901126103635760206040516154608152f35b34610363576000366003190112610363576020906007548152f35b600435906001600160a01b038216820361036357565b6004359060ff8216820361036357565b6024359060ff8216820361036357565b606090600319011261036357600435906024356001600160a01b0381168103610363579060443560ff811681036103635790565b60055481101561350557600560005260206000200190600090565b634e487b7160e01b600052603260045260246000fd5b906020808351928381520192019060005b8181106135395750505090565b82516001600160a01b031684526020938401939092019160010161352c565b919091805483101561350557600052601f60206000208360051c01921690565b8115613582570490565b634e487b7160e01b600052601260045260246000fd5b60c0810190811067ffffffffffffffff8211176135b457604052565b634e487b7160e01b600052604160045260246000fd5b90601f8019910116810190811067ffffffffffffffff8211176135b457604052565b156135f357565b60405162461bcd60e51b8152602060048201526013602482015272526f756e64206973206e6f742061637469766560681b6044820152606490fd5b9081602091031261036357516001600160a01b03811681036103635790565b8051156135055760200190565b8051600110156135055760400190565b6020818303126103635780519067ffffffffffffffff821161036357019080601f830112156103635781519167ffffffffffffffff83116135b4578260051b9060208201936136bc60405195866135ca565b845260208085019282010192831161036357602001905b8282106136e05750505090565b81518152602091820191016136d3565b60409061370793928152816020820152019061351b565b90565b9061371481613b88565b506040516137236060826135ca565b6002815260403660208301376040516315ab88c960e31b8152907f00000000000000000000000000000000000000000000000000000000000000006001600160a01b0316602083600481845afa948515611353576137f0956000948591613893575b5061378f8461364d565b6001600160a01b0390911690526137a58361365a565b7f00000000000000000000000000000000000000000000000000000000000000006001600160a01b0316905260405163d06ca61f60e01b8152958693849283929190600484016136f0565b03915afa91821561135357600092613876575b506001825111156138425761381a6137079261365a565b517f0000000000000000000000000000000000000000000000000000000000000000906139e1565b60405162461bcd60e51b815260206004820152600c60248201526b092dcecc2d8d2c840e0c2e8d60a31b6044820152606490fd5b61388c9192503d806000833e612b1c81836135ca565b9038613803565b6138ac915060203d602011612b5257612b4481836135ca565b38613785565b81810292918115918404141715610c5057565b60ff166012039060ff8211610c5057565b60ff60069116019060ff8211610c5057565b60ff16604d8111610c5057600a0a90565b61393161392c61392661393693600161391d61391761370799613b88565b97613be1565b960154906138b2565b936138c5565b6138d6565b6138e8565b90613578565b91908201809211610c5057565b1561395057565b60405162461bcd60e51b815260206004820152601060248201526f14185d5cd8589b194e881c185d5cd95960821b6044820152606490fd5b1561398f57565b60405162461bcd60e51b815260206004820152601b60248201527f496e76616c696420746f6b656e20616d6f756e7420746f2062757900000000006044820152606490fd5b91908203918211610c5057565b613a0a600191613a0461393161392c6139ff61391761370799613b88565b6138c5565b906138b2565b91015490613578565b60005460ff168080613a4b575b80613a33575b613a2d5790565b50600090565b506009546203f4808101809111610c50574211613a26565b506009541515613a20565b15613a5d57565b60405162461bcd60e51b815260206004820152600f60248201526e496e76616c6964206164647265737360881b6044820152606490fd5b613aa061370791613b88565b60056002820154910154906139d4565b90816020910312610363575180151581036103635790565b6040516323b872dd60e01b81526001600160a01b03928316600482015292821660248401526044830193909352909160209183916064918391600091165af190811561135357600091613b59575b5015613b1e57565b60405162461bcd60e51b8152602060048201526013602482015272151c985b9cd9995c919c9bdb4819985a5b1959606a1b6044820152606490fd5b613b7b915060203d602011613b81575b613b7381836135ca565b810190613ab0565b38613b16565b503d613b69565b60ff16600052600c6020526040600020600381015415613ba55790565b60405162461bcd60e51b8152602060048201526014602482015273149bdd5b9908191bd95cc81b9bdd08195e1a5cdd60621b6044820152606490fd5b60405163313ce56760e01b815290602090829060049082906001600160a01b03165afa90811561135357600091613c16575090565b6020813d602011613c4b575b81613c2f602093836135ca565b81010312613c4757519060ff82168203611f86575090565b5080fd5b3d9150613c22565b600260015414613c64576002600155565b633ee5aeb560e01b60005260046000fd5b9391929093613c8383613b88565b9060018060a01b03169384600052601160205260ff6040600020541615613e6b575b84600052600f602052604060002060ff851660005260205260406000205415613e18575b6000858152600d602090815260408083206001600160a01b03851684529091529020805460ff93613d5c9392600592613d0390889061393c565b905587600052600e6020526040600020613d1e8a825461393c565b905501613d2c88825461393c565b905585600052600f60205260406000208386166000526020526040600020613d5588825461393c565b9055613be1565b166006811115613dc9576005190160ff8111610c50577fc61bdac2aa4b88df79cfd292eb2941eccd0bc9c358ff8106b73a8af428c7abb392604092613db6613dae613da860ff956138e8565b83613578565b60035461393c565b6003555b835196875260208701521693a3565b60060360ff8111610c50577fc61bdac2aa4b88df79cfd292eb2941eccd0bc9c358ff8106b73a8af428c7abb392604092613e10613dae613e0a60ff956138e8565b836138b2565b600355613dba565b8460005260106020526040600020908154600160401b8110156135b45760ff93613e4d82613d5c956001600595018155613558565b81549060031b9087808b16831b921b19161790559350509050613cc9565b6000858152601160205260409020805460ff19166001179055600554600160401b8110156135b457806001613ea392016005556134ea565b81546001600160a01b0360039290921b91821b19169087901b179055613ca5565b60405163a9059cbb60e01b81526001600160a01b039283166004820152602481019390935260209183916044918391600091165af190811561135357600091613f47575b5015613f1057565b60405162461bcd60e51b815260206004820152600f60248201526e151c985b9cd9995c8819985a5b1959608a1b6044820152606490fd5b613f60915060203d602011613b8157613b7381836135ca565b38613f08565b6001600160a01b03908116907f0000000000000000000000000000000000000000000000000000000000000000168103613fbd5750604051613fa96040826135ca565b60048152631554d11560e21b602082015290565b7f00000000000000000000000000000000000000000000000000000000000000006001600160a01b031681036140105750604051613ffc6040826135ca565b60048152635553444360e01b602082015290565b7f00000000000000000000000000000000000000000000000000000000000000006001600160a01b0316036140605760405161404d6040826135ca565b600381526244414960e81b602082015290565b60405161406e6040826135ca565b60078152662ab735b737bbb760c91b60208201529056fefc48f4f163cfed28aaf3be3f0b162a1338fab214afc9340eafc6cb081c71fadffb1e8f6b1e57862e4ad3d4a99436b1b29863f0078dba7792a1319f444a79d00aa26469706673582212202903c5a10691b1ff8f0dd1832585e47ce5eac9eb91084b0914f24b814121e56664736f6c634300081e0033",
  "linkReferences": {},
  "deployedLinkReferences": {}
}