{
  "_format": "hh-sol-artifact-1",
  "contractName": "QSEToken",
  "sourceName": "contracts/QSE.sol",
  "abi": [
    {
      "inputs": [
        {
          "internalType": "address",
          "name": "ownerAddress",
          "type": "address"
        }
      ],
      "stateMutability": "nonpayable",
      "type": "constructor"
    },
    {
      "inputs": [],
      "name": "ECDSAInvalidSignature",
      "type": "error"
    },
    {
      "inputs": [
        {
          "internalType": "uint256",
          "name": "length",
          "type": "uint256"
        }
      ],
      "name": "ECDSAInvalidSignatureLength",
      "type": "error"
    },
    {
      "inputs": [
        {
          "internalType": "bytes32",
          "name": "s",
          "type": "bytes32"
        }
      ],
      "name": "ECDSAInvalidSignatureS",
      "type": "error"
    },
    {
      "inputs": [
        {
          "internalType": "address",
          "name": "spender",
          "type": "address"
        },
        {
          "internalType": "uint256",
          "name": "allowance",
          "type": "uint256"
        },
        {
          "internalType": "uint256",
          "name": "needed",
          "type": "uint256"
        }
      ],
      "name": "ERC20InsufficientAllowance",
      "type": "error"
    },
    {
      "inputs": [
        {
          "internalType": "address",
          "name": "sender",
          "type": "address"
        },
        {
          "internalType": "uint256",
          "name": "balance",
          "type": "uint256"
        },
        {
          "internalType": "uint256",
          "name": "needed",
          "type": "uint256"
        }
      ],
      "name": "ERC20InsufficientBalance",
      "type": "error"
    },
    {
      "inputs": [
        {
          "internalType": "address",
          "name": "approver",
          "type": "address"
        }
      ],
      "name": "ERC20InvalidApprover",
      "type": "error"
    },
    {
      "inputs": [
        {
          "internalType": "address",
          "name": "receiver",
          "type": "address"
        }
      ],
      "name": "ERC20InvalidReceiver",
      "type": "error"
    },
    {
      "inputs": [
        {
          "internalType": "address",
          "name": "sender",
          "type": "address"
        }
      ],
      "name": "ERC20InvalidSender",
      "type": "error"
    },
    {
      "inputs": [
        {
          "internalType": "address",
          "name": "spender",
          "type": "address"
        }
      ],
      "name": "ERC20InvalidSpender",
      "type": "error"
    },
    {
      "inputs": [
        {
          "internalType": "uint256",
          "name": "deadline",
          "type": "uint256"
        }
      ],
      "name": "ERC2612ExpiredSignature",
      "type": "error"
    },
    {
      "inputs": [
        {
          "internalType": "address",
          "name": "signer",
          "type": "address"
        },
        {
          "internalType": "address",
          "name": "owner",
          "type": "address"
        }
      ],
      "name": "ERC2612InvalidSigner",
      "type": "error"
    },
    {
      "inputs": [
        {
          "internalType": "address",
          "name": "account",
          "type": "address"
        },
        {
          "internalType": "uint256",
          "name": "currentNonce",
          "type": "uint256"
        }
      ],
      "name": "InvalidAccountNonce",
      "type": "error"
    },
    {
      "inputs": [],
      "name": "InvalidShortString",
      "type": "error"
    },
    {
      "inputs": [
        {
          "internalType": "address",
          "name": "owner",
          "type": "address"
        }
      ],
      "name": "OwnableInvalidOwner",
      "type": "error"
    },
    {
      "inputs": [
        {
          "internalType": "address",
          "name": "account",
          "type": "address"
        }
      ],
      "name": "OwnableUnauthorizedAccount",
      "type": "error"
    },
    {
      "inputs": [
        {
          "internalType": "string",
          "name": "str",
          "type": "string"
        }
      ],
      "name": "StringTooLong",
      "type": "error"
    },
    {
      "anonymous": false,
      "inputs": [
        {
          "indexed": true,
          "internalType": "address",
          "name": "owner",
          "type": "address"
        },
        {
          "indexed": true,
          "internalType": "address",
          "name": "spender",
          "type": "address"
        },
        {
          "indexed": false,
          "internalType": "uint256",
          "name": "value",
          "type": "uint256"
        }
      ],
      "name": "Approval",
      "type": "event"
    },
    {
      "anonymous": false,
      "inputs": [],
      "name": "EIP712DomainChanged",
      "type": "event"
    },
    {
      "anonymous": false,
      "inputs": [
        {
          "indexed": true,
          "internalType": "address",
          "name": "previousOwner",
          "type": "address"
        },
        {
          "indexed": true,
          "internalType": "address",
          "name": "newOwner",
          "type": "address"
        }
      ],
      "name": "OwnershipTransferred",
      "type": "event"
    },
    {
      "anonymous": false,
      "inputs": [
        {
          "indexed": true,
          "internalType": "address",
          "name": "from",
          "type": "address"
        },
        {
          "indexed": false,
          "internalType": "uint256",
          "name": "amount",
          "type": "uint256"
        }
      ],
      "name": "TokensBurned",
      "type": "event"
    },
    {
      "anonymous": false,
      "inputs": [
        {
          "indexed": true,
          "internalType": "address",
          "name": "from",
          "type": "address"
        },
        {
          "indexed": true,
          "internalType": "address",
          "name": "to",
          "type": "address"
        },
        {
          "indexed": false,
          "internalType": "uint256",
          "name": "value",
          "type": "uint256"
        }
      ],
      "name": "Transfer",
      "type": "event"
    },
    {
      "inputs": [],
      "name": "DOMAIN_SEPARATOR",
      "outputs": [
        {
          "internalType": "bytes32",
          "name": "",
          "type": "bytes32"
        }
      ],
      "stateMutability": "view",
      "type": "function"
    },
    {
      "inputs": [],
      "name": "INITIAL_SUPPLY",
      "outputs": [
        {
          "internalType": "uint256",
          "name": "",
          "type": "uint256"
        }
      ],
      "stateMutability": "view",
      "type": "function"
    },
    {
      "inputs": [],
      "name": "MAX_SUPPLY",
      "outputs": [
        {
          "internalType": "uint256",
          "name": "",
          "type": "uint256"
        }
      ],
      "stateMutability": "view",
      "type": "function"
    },
    {
      "inputs": [],
      "name": "TRANSACTION_BURN_RATE",
      "outputs": [
        {
          "internalType": "uint256",
          "name": "",
          "type": "uint256"
        }
      ],
      "stateMutability": "view",
      "type": "function"
    },
    {
      "inputs": [
        {
          "internalType": "address",
          "name": "beneficiary",
          "type": "address"
        },
        {
          "internalType": "uint256",
          "name": "amount",
          "type": "uint256"
        },
        {
          "internalType": "uint256",
          "name": "duration",
          "type": "uint256"
        }
      ],
      "name": "allocateVestedTokens",
      "outputs": [],
      "stateMutability": "nonpayable",
      "type": "function"
    },
    {
      "inputs": [
        {
          "internalType": "address",
          "name": "owner",
          "type": "address"
        },
        {
          "internalType": "address",
          "name": "spender",
          "type": "address"
        }
      ],
      "name": "allowance",
      "outputs": [
        {
          "internalType": "uint256",
          "name": "",
          "type": "uint256"
        }
      ],
      "stateMutability": "view",
      "type": "function"
    },
    {
      "inputs": [
        {
          "internalType": "address",
          "name": "spender",
          "type": "address"
        },
        {
          "internalType": "uint256",
          "name": "value",
          "type": "uint256"
        }
      ],
      "name": "approve",
      "outputs": [
        {
          "internalType": "bool",
          "name": "",
          "type": "bool"
        }
      ],
      "stateMutability": "nonpayable",
      "type": "function"
    },
    {
      "inputs": [
        {
          "internalType": "address",
          "name": "account",
          "type": "address"
        }
      ],
      "name": "balanceOf",
      "outputs": [
        {
          "internalType": "uint256",
          "name": "",
          "type": "uint256"
        }
      ],
      "stateMutability": "view",
      "type": "function"
    },
    {
      "inputs": [
        {
          "internalType": "uint256",
          "name": "amount",
          "type": "uint256"
        }
      ],
      "name": "burn",
      "outputs": [],
      "stateMutability": "nonpayable",
      "type": "function"
    },
    {
      "inputs": [],
      "name": "claimVestedTokens",
      "outputs": [],
      "stateMutability": "nonpayable",
      "type": "function"
    },
    {
      "inputs": [],
      "name": "decimals",
      "outputs": [
        {
          "internalType": "uint8",
          "name": "",
          "type": "uint8"
        }
      ],
      "stateMutability": "view",
      "type": "function"
    },
    {
      "inputs": [],
      "name": "eip712Domain",
      "outputs": [
        {
          "internalType": "bytes1",
          "name": "fields",
          "type": "bytes1"
        },
        {
          "internalType": "string",
          "name": "name",
          "type": "string"
        },
        {
          "internalType": "string",
          "name": "version",
          "type": "string"
        },
        {
          "internalType": "uint256",
          "name": "chainId",
          "type": "uint256"
        },
        {
          "internalType": "address",
          "name": "verifyingContract",
          "type": "address"
        },
        {
          "internalType": "bytes32",
          "name": "salt",
          "type": "bytes32"
        },
        {
          "internalType": "uint256[]",
          "name": "extensions",
          "type": "uint256[]"
        }
      ],
      "stateMutability": "view",
      "type": "function"
    },
    {
      "inputs": [],
      "name": "name",
      "outputs": [
        {
          "internalType": "string",
          "name": "",
          "type": "string"
        }
      ],
      "stateMutability": "view",
      "type": "function"
    },
    {
      "inputs": [
        {
          "internalType": "address",
          "name": "owner",
          "type": "address"
        }
      ],
      "name": "nonces",
      "outputs": [
        {
          "internalType": "uint256",
          "name": "",
          "type": "uint256"
        }
      ],
      "stateMutability": "view",
      "type": "function"
    },
    {
      "inputs": [],
      "name": "owner",
      "outputs": [
        {
          "internalType": "address",
          "name": "",
          "type": "address"
        }
      ],
      "stateMutability": "view",
      "type": "function"
    },
    {
      "inputs": [
        {
          "internalType": "address",
          "name": "owner",
          "type": "address"
        },
        {
          "internalType": "address",
          "name": "spender",
          "type": "address"
        },
        {
          "internalType": "uint256",
          "name": "value",
          "type": "uint256"
        },
        {
          "internalType": "uint256",
          "name": "deadline",
          "type": "uint256"
        },
        {
          "internalType": "uint8",
          "name": "v",
          "type": "uint8"
        },
        {
          "internalType": "bytes32",
          "name": "r",
          "type": "bytes32"
        },
        {
          "internalType": "bytes32",
          "name": "s",
          "type": "bytes32"
        }
      ],
      "name": "permit",
      "outputs": [],
      "stateMutability": "nonpayable",
      "type": "function"
    },
    {
      "inputs": [],
      "name": "renounceOwnership",
      "outputs": [],
      "stateMutability": "nonpayable",
      "type": "function"
    },
    {
      "inputs": [],
      "name": "symbol",
      "outputs": [
        {
          "internalType": "string",
          "name": "",
          "type": "string"
        }
      ],
      "stateMutability": "view",
      "type": "function"
    },
    {
      "inputs": [],
      "name": "totalSupply",
      "outputs": [
        {
          "internalType": "uint256",
          "name": "",
          "type": "uint256"
        }
      ],
      "stateMutability": "view",
      "type": "function"
    },
    {
      "inputs": [
        {
          "internalType": "address",
          "name": "recipient",
          "type": "address"
        },
        {
          "internalType": "uint256",
          "name": "amount",
          "type": "uint256"
        }
      ],
      "name": "transfer",
      "outputs": [
        {
          "internalType": "bool",
          "name": "",
          "type": "bool"
        }
      ],
      "stateMutability": "nonpayable",
      "type": "function"
    },
    {
      "inputs": [
        {
          "internalType": "address",
          "name": "sender",
          "type": "address"
        },
        {
          "internalType": "address",
          "name": "recipient",
          "type": "address"
        },
        {
          "internalType": "uint256",
          "name": "amount",
          "type": "uint256"
        }
      ],
      "name": "transferFrom",
      "outputs": [
        {
          "internalType": "bool",
          "name": "",
          "type": "bool"
        }
      ],
      "stateMutability": "nonpayable",
      "type": "function"
    },
    {
      "inputs": [
        {
          "internalType": "address",
          "name": "newOwner",
          "type": "address"
        }
      ],
      "name": "transferOwnership",
      "outputs": [],
      "stateMutability": "nonpayable",
      "type": "function"
    },
    {
      "inputs": [
        {
          "internalType": "address",
          "name": "",
          "type": "address"
        }
      ],
      "name": "vestedTokens",
      "outputs": [
        {
          "internalType": "uint256",
          "name": "",
          "type": "uint256"
        }
      ],
      "stateMutability": "view",
      "type": "function"
    },
    {
      "inputs": [
        {
          "internalType": "address",
          "name": "",
          "type": "address"
        }
      ],
      "name": "vestingEndTime",
      "outputs": [
        {
          "internalType": "uint256",
          "name": "",
          "type": "uint256"
        }
      ],
      "stateMutability": "view",
      "type": "function"
    }
  ],
  "bytecode": "0x6101606040523480156200001257600080fd5b50604051620039e6380380620039e683398181016040528101906200003891906200081f565b806040518060400160405280601a81526020017f5175616e74756d53454320416e616c797469637320546f6b656e000000000000815250806040518060400160405280600181526020017f31000000000000000000000000000000000000000000000000000000000000008152506040518060400160405280601a81526020017f5175616e74756d53454320416e616c797469637320546f6b656e0000000000008152506040518060400160405280600381526020017f5153450000000000000000000000000000000000000000000000000000000000815250816003908162000123919062000acb565b50806004908162000135919062000acb565b5050506200014e6005836200030660201b90919060201c565b61012081815250506200016c6006826200030660201b90919060201c565b6101408181525050818051906020012060e08181525050808051906020012061010081815250504660a08181525050620001ab6200035e60201b60201c565b608081815250503073ffffffffffffffffffffffffffffffffffffffff1660c08173ffffffffffffffffffffffffffffffffffffffff1681525050505050600073ffffffffffffffffffffffffffffffffffffffff168173ffffffffffffffffffffffffffffffffffffffff16036200025e5760006040517f1e4fbdf700000000000000000000000000000000000000000000000000000000815260040162000255919062000bc3565b60405180910390fd5b6200026f81620003bb60201b60201c565b50600073ffffffffffffffffffffffffffffffffffffffff168173ffffffffffffffffffffffffffffffffffffffff1603620002e2576040517f08c379a0000000000000000000000000000000000000000000000000000000008152600401620002d99062000c41565b60405180910390fd5b620002ff816af8277896582678ac0000006200048160201b60201c565b5062000ef4565b60006020835110156200032c5762000324836200050e60201b60201c565b905062000358565b826200033e836200057b60201b60201c565b60000190816200034f919062000acb565b5060ff60001b90505b92915050565b60007f8b73c3c69bb8fe3d512ecc4cf759cc79239f7b179b0ffacaa9a75d522b39400f60e051610100514630604051602001620003a095949392919062000c8f565b60405160208183030381529060405280519060200120905090565b6000600860009054906101000a900473ffffffffffffffffffffffffffffffffffffffff16905081600860006101000a81548173ffffffffffffffffffffffffffffffffffffffff021916908373ffffffffffffffffffffffffffffffffffffffff1602179055508173ffffffffffffffffffffffffffffffffffffffff168173ffffffffffffffffffffffffffffffffffffffff167f8be0079c531659141344cd1fd0a4f28419497f9722a3daafe3b4186f6b6457e060405160405180910390a35050565b600073ffffffffffffffffffffffffffffffffffffffff168273ffffffffffffffffffffffffffffffffffffffff1603620004f65760006040517fec442f05000000000000000000000000000000000000000000000000000000008152600401620004ed919062000bc3565b60405180910390fd5b6200050a600083836200058560201b60201c565b5050565b600080829050601f815111156200055e57826040517f305a27a900000000000000000000000000000000000000000000000000000000815260040162000555919062000d6a565b60405180910390fd5b8051816200056c9062000dc0565b60001c1760001b915050919050565b6000819050919050565b600073ffffffffffffffffffffffffffffffffffffffff168373ffffffffffffffffffffffffffffffffffffffff1603620005db578060026000828254620005ce919062000e5f565b92505081905550620006b1565b60008060008573ffffffffffffffffffffffffffffffffffffffff1673ffffffffffffffffffffffffffffffffffffffff168152602001908152602001600020549050818110156200066a578381836040517fe450d38c000000000000000000000000000000000000000000000000000000008152600401620006619392919062000e9a565b60405180910390fd5b8181036000808673ffffffffffffffffffffffffffffffffffffffff1673ffffffffffffffffffffffffffffffffffffffff16815260200190815260200160002081905550505b600073ffffffffffffffffffffffffffffffffffffffff168273ffffffffffffffffffffffffffffffffffffffff1603620006fc578060026000828254039250508190555062000749565b806000808473ffffffffffffffffffffffffffffffffffffffff1673ffffffffffffffffffffffffffffffffffffffff168152602001908152602001600020600082825401925050819055505b8173ffffffffffffffffffffffffffffffffffffffff168373ffffffffffffffffffffffffffffffffffffffff167fddf252ad1be2c89b69c2b068fc378daa952ba7f163c4a11628f55a4df523b3ef83604051620007a8919062000ed7565b60405180910390a3505050565b600080fd5b600073ffffffffffffffffffffffffffffffffffffffff82169050919050565b6000620007e782620007ba565b9050919050565b620007f981620007da565b81146200080557600080fd5b50565b6000815190506200081981620007ee565b92915050565b600060208284031215620008385762000837620007b5565b5b6000620008488482850162000808565b91505092915050565b600081519050919050565b7f4e487b7100000000000000000000000000000000000000000000000000000000600052604160045260246000fd5b7f4e487b7100000000000000000000000000000000000000000000000000000000600052602260045260246000fd5b60006002820490506001821680620008d357607f821691505b602082108103620008e957620008e86200088b565b5b50919050565b60008190508160005260206000209050919050565b60006020601f8301049050919050565b600082821b905092915050565b600060088302620009537fffffffffffffffffffffffffffffffffffffffffffffffffffffffffffffffff8262000914565b6200095f868362000914565b95508019841693508086168417925050509392505050565b6000819050919050565b6000819050919050565b6000620009ac620009a6620009a08462000977565b62000981565b62000977565b9050919050565b6000819050919050565b620009c8836200098b565b620009e0620009d782620009b3565b84845462000921565b825550505050565b600090565b620009f7620009e8565b62000a04818484620009bd565b505050565b5b8181101562000a2c5762000a20600082620009ed565b60018101905062000a0a565b5050565b601f82111562000a7b5762000a4581620008ef565b62000a508462000904565b8101602085101562000a60578190505b62000a7862000a6f8562000904565b83018262000a09565b50505b505050565b600082821c905092915050565b600062000aa06000198460080262000a80565b1980831691505092915050565b600062000abb838362000a8d565b9150826002028217905092915050565b62000ad68262000851565b67ffffffffffffffff81111562000af25762000af16200085c565b5b62000afe8254620008ba565b62000b0b82828562000a30565b600060209050601f83116001811462000b43576000841562000b2e578287015190505b62000b3a858262000aad565b86555062000baa565b601f19841662000b5386620008ef565b60005b8281101562000b7d5784890151825560018201915060208501945060208101905062000b56565b8683101562000b9d578489015162000b99601f89168262000a8d565b8355505b6001600288020188555050505b505050505050565b62000bbd81620007da565b82525050565b600060208201905062000bda600083018462000bb2565b92915050565b600082825260208201905092915050565b7f496e76616c6964206f776e657220616464726573730000000000000000000000600082015250565b600062000c2960158362000be0565b915062000c368262000bf1565b602082019050919050565b6000602082019050818103600083015262000c5c8162000c1a565b9050919050565b6000819050919050565b62000c788162000c63565b82525050565b62000c898162000977565b82525050565b600060a08201905062000ca6600083018862000c6d565b62000cb5602083018762000c6d565b62000cc4604083018662000c6d565b62000cd3606083018562000c7e565b62000ce2608083018462000bb2565b9695505050505050565b60005b8381101562000d0c57808201518184015260208101905062000cef565b60008484015250505050565b6000601f19601f8301169050919050565b600062000d368262000851565b62000d42818562000be0565b935062000d5481856020860162000cec565b62000d5f8162000d18565b840191505092915050565b6000602082019050818103600083015262000d86818462000d29565b905092915050565b600081519050919050565b6000819050602082019050919050565b600062000db7825162000c63565b80915050919050565b600062000dcd8262000d8e565b8262000dd98462000d99565b905062000de68162000da9565b9250602082101562000e295762000e247fffffffffffffffffffffffffffffffffffffffffffffffffffffffffffffffff8360200360080262000914565b831692505b5050919050565b7f4e487b7100000000000000000000000000000000000000000000000000000000600052601160045260246000fd5b600062000e6c8262000977565b915062000e798362000977565b925082820190508082111562000e945762000e9362000e30565b5b92915050565b600060608201905062000eb1600083018662000bb2565b62000ec0602083018562000c7e565b62000ecf604083018462000c7e565b949350505050565b600060208201905062000eee600083018462000c7e565b92915050565b60805160a05160c05160e051610100516101205161014051612a9762000f4f60003960006112ee015260006112b3015260006116d2015260006116b101526000610fdf015260006110350152600061105e0152612a976000f3fe608060405234801561001057600080fd5b50600436106101585760003560e01c8063715018a6116100c3578063a29cc6c81161007c578063a29cc6c8146103d5578063a9059cbb146103f1578063d505accf14610421578063dd62ed3e1461043d578063e74f3fbb1461046d578063f2fde38b1461047757610158565b8063715018a61461030b5780637dbf453c146103155780637ecebe001461034557806384b0196e146103755780638da5cb5b1461039957806395d89b41146103b757610158565b806332cb6b0c1161011557806332cb6b0c146102355780633644e515146102535780633dee03971461027157806342966c68146102a157806354fe8073146102bd57806370a08231146102db57610158565b806306fdde031461015d578063095ea7b31461017b57806318160ddd146101ab57806323b872dd146101c95780632ff2e9dc146101f9578063313ce56714610217575b600080fd5b610165610493565b6040516101729190611de4565b60405180910390f35b61019560048036038101906101909190611e9f565b610525565b6040516101a29190611efa565b60405180910390f35b6101b3610548565b6040516101c09190611f24565b60405180910390f35b6101e360048036038101906101de9190611f3f565b610552565b6040516101f09190611efa565b60405180910390f35b6102016105df565b60405161020e9190611f24565b60405180910390f35b61021f6105ee565b60405161022c9190611fae565b60405180910390f35b61023d6105f7565b60405161024a9190611f24565b60405180910390f35b61025b610607565b6040516102689190611fe2565b60405180910390f35b61028b60048036038101906102869190611ffd565b610616565b6040516102989190611f24565b60405180910390f35b6102bb60048036038101906102b6919061202a565b61062e565b005b6102c56106e0565b6040516102d29190611f24565b60405180910390f35b6102f560048036038101906102f09190611ffd565b6106e5565b6040516103029190611f24565b60405180910390f35b61031361072d565b005b61032f600480360381019061032a9190611ffd565b610741565b60405161033c9190611f24565b60405180910390f35b61035f600480360381019061035a9190611ffd565b610759565b60405161036c9190611f24565b60405180910390f35b61037d61076b565b604051610390979695949392919061215f565b60405180910390f35b6103a1610815565b6040516103ae91906121e3565b60405180910390f35b6103bf61083f565b6040516103cc9190611de4565b60405180910390f35b6103ef60048036038101906103ea91906121fe565b6108d1565b005b61040b60048036038101906104069190611e9f565b610ad2565b6040516104189190611efa565b60405180910390f35b61043b600480360381019061043691906122a9565b610af0565b005b6104576004803603810190610452919061234b565b610c38565b6040516104649190611f24565b60405180910390f35b610475610cbf565b005b610491600480360381019061048c9190611ffd565b610e4f565b005b6060600380546104a2906123ba565b80601f01602080910402602001604051908101604052809291908181526020018280546104ce906123ba565b801561051b5780601f106104f05761010080835404028352916020019161051b565b820191906000526020600020905b8154815290600101906020018083116104fe57829003601f168201915b5050505050905090565b600080610530610ed5565b905061053d818585610edd565b600191505092915050565b6000600254905090565b60008061056685610561610ed5565b610c38565b9050828110156105ab576040517f08c379a00000000000000000000000000000000000000000000000000000000081526004016105a29061245d565b60405180910390fd5b6105b6858585610eef565b6105d3856105c2610ed5565b85846105ce91906124ac565b610edd565b60019150509392505050565b6af8277896582678ac00000081565b60006012905090565b6b033b2e3c9fd0803ce800000081565b6000610611610fdb565b905090565b60096020528060005260406000206000915090505481565b600081118015610646575080610643336106e5565b10155b610685576040517f08c379a000000000000000000000000000000000000000000000000000000000815260040161067c9061252c565b60405180910390fd5b61068f3382611092565b3373ffffffffffffffffffffffffffffffffffffffff167ffd38818f5291bf0bb3a2a48aadc06ba8757865d1dabd804585338aab3009dcb6826040516106d59190611f24565b60405180910390a250565b600281565b60008060008373ffffffffffffffffffffffffffffffffffffffff1673ffffffffffffffffffffffffffffffffffffffff168152602001908152602001600020549050919050565b610735611114565b61073f600061119b565b565b600a6020528060005260406000206000915090505481565b600061076482611261565b9050919050565b60006060806000806000606061077f6112aa565b6107876112e5565b46306000801b600067ffffffffffffffff8111156107a8576107a761254c565b5b6040519080825280602002602001820160405280156107d65781602001602082028036833780820191505090505b507f0f00000000000000000000000000000000000000000000000000000000000000959493929190965096509650965096509650965090919293949596565b6000600860009054906101000a900473ffffffffffffffffffffffffffffffffffffffff16905090565b60606004805461084e906123ba565b80601f016020809104026020016040519081016040528092919081815260200182805461087a906123ba565b80156108c75780601f1061089c576101008083540402835291602001916108c7565b820191906000526020600020905b8154815290600101906020018083116108aa57829003601f168201915b5050505050905090565b6108d9611114565b600073ffffffffffffffffffffffffffffffffffffffff168373ffffffffffffffffffffffffffffffffffffffff1603610948576040517f08c379a000000000000000000000000000000000000000000000000000000000815260040161093f906125c7565b60405180910390fd5b60008211801561096757508161096461095f610815565b6106e5565b10155b6109a6576040517f08c379a000000000000000000000000000000000000000000000000000000000815260040161099d90612633565b60405180910390fd5b6000600a60008573ffffffffffffffffffffffffffffffffffffffff1673ffffffffffffffffffffffffffffffffffffffff1681526020019081526020016000205414610a28576040517f08c379a0000000000000000000000000000000000000000000000000000000008152600401610a1f9061269f565b60405180910390fd5b81600960008573ffffffffffffffffffffffffffffffffffffffff1673ffffffffffffffffffffffffffffffffffffffff168152602001908152602001600020819055508042610a7891906126bf565b600a60008573ffffffffffffffffffffffffffffffffffffffff1673ffffffffffffffffffffffffffffffffffffffff16815260200190815260200160002081905550610acd610ac6610815565b8484611320565b505050565b6000610ae6610adf610ed5565b8484610eef565b6001905092915050565b83421115610b3557836040517f62791302000000000000000000000000000000000000000000000000000000008152600401610b2c9190611f24565b60405180910390fd5b60007f6e71edae12b1b97f4d1f60370fef10105fa2faae0126114a169c64845d6126c9888888610b648c611414565b89604051602001610b7a969594939291906126f3565b6040516020818303038152906040528051906020012090506000610b9d8261146b565b90506000610bad82878787611485565b90508973ffffffffffffffffffffffffffffffffffffffff168173ffffffffffffffffffffffffffffffffffffffff1614610c2157808a6040517f4b800e46000000000000000000000000000000000000000000000000000000008152600401610c18929190612754565b60405180910390fd5b610c2c8a8a8a610edd565b50505050505050505050565b6000600160008473ffffffffffffffffffffffffffffffffffffffff1673ffffffffffffffffffffffffffffffffffffffff16815260200190815260200160002060008373ffffffffffffffffffffffffffffffffffffffff1673ffffffffffffffffffffffffffffffffffffffff16815260200190815260200160002054905092915050565b600a60003373ffffffffffffffffffffffffffffffffffffffff1673ffffffffffffffffffffffffffffffffffffffff16815260200190815260200160002054421015610d41576040517f08c379a0000000000000000000000000000000000000000000000000000000008152600401610d38906127c9565b60405180910390fd5b6000600960003373ffffffffffffffffffffffffffffffffffffffff1673ffffffffffffffffffffffffffffffffffffffff1681526020019081526020016000205411610dc3576040517f08c379a0000000000000000000000000000000000000000000000000000000008152600401610dba90612835565b60405180910390fd5b6000600960003373ffffffffffffffffffffffffffffffffffffffff1673ffffffffffffffffffffffffffffffffffffffff168152602001908152602001600020819055506000600a60003373ffffffffffffffffffffffffffffffffffffffff1673ffffffffffffffffffffffffffffffffffffffff16815260200190815260200160002081905550565b610e57611114565b600073ffffffffffffffffffffffffffffffffffffffff168173ffffffffffffffffffffffffffffffffffffffff1603610ec95760006040517f1e4fbdf7000000000000000000000000000000000000000000000000000000008152600401610ec091906121e3565b60405180910390fd5b610ed28161119b565b50565b600033905090565b610eea83838360016114b5565b505050565b80610ef9846106e5565b1015610f3a576040517f08c379a0000000000000000000000000000000000000000000000000000000008152600401610f31906128a1565b60405180910390fd5b60006064600283610f4b91906128c1565b610f559190612932565b905060008183610f6591906124ac565b90506000821115610fc957610f7a8583611092565b8473ffffffffffffffffffffffffffffffffffffffff167ffd38818f5291bf0bb3a2a48aadc06ba8757865d1dabd804585338aab3009dcb683604051610fc09190611f24565b60405180910390a25b610fd4858583611320565b5050505050565b60007f000000000000000000000000000000000000000000000000000000000000000073ffffffffffffffffffffffffffffffffffffffff163073ffffffffffffffffffffffffffffffffffffffff1614801561105757507f000000000000000000000000000000000000000000000000000000000000000046145b15611084577f0000000000000000000000000000000000000000000000000000000000000000905061108f565b61108c61168c565b90505b90565b600073ffffffffffffffffffffffffffffffffffffffff168273ffffffffffffffffffffffffffffffffffffffff16036111045760006040517f96c6fd1e0000000000000000000000000000000000000000000000000000000081526004016110fb91906121e3565b60405180910390fd5b61111082600083611722565b5050565b61111c610ed5565b73ffffffffffffffffffffffffffffffffffffffff1661113a610815565b73ffffffffffffffffffffffffffffffffffffffff16146111995761115d610ed5565b6040517f118cdaa700000000000000000000000000000000000000000000000000000000815260040161119091906121e3565b60405180910390fd5b565b6000600860009054906101000a900473ffffffffffffffffffffffffffffffffffffffff16905081600860006101000a81548173ffffffffffffffffffffffffffffffffffffffff021916908373ffffffffffffffffffffffffffffffffffffffff1602179055508173ffffffffffffffffffffffffffffffffffffffff168173ffffffffffffffffffffffffffffffffffffffff167f8be0079c531659141344cd1fd0a4f28419497f9722a3daafe3b4186f6b6457e060405160405180910390a35050565b6000600760008373ffffffffffffffffffffffffffffffffffffffff1673ffffffffffffffffffffffffffffffffffffffff168152602001908152602001600020549050919050565b60606112e060057f000000000000000000000000000000000000000000000000000000000000000061194790919063ffffffff16565b905090565b606061131b60067f000000000000000000000000000000000000000000000000000000000000000061194790919063ffffffff16565b905090565b600073ffffffffffffffffffffffffffffffffffffffff168373ffffffffffffffffffffffffffffffffffffffff16036113925760006040517f96c6fd1e00000000000000000000000000000000000000000000000000000000815260040161138991906121e3565b60405180910390fd5b600073ffffffffffffffffffffffffffffffffffffffff168273ffffffffffffffffffffffffffffffffffffffff16036114045760006040517fec442f050000000000000000000000000000000000000000000000000000000081526004016113fb91906121e3565b60405180910390fd5b61140f838383611722565b505050565b6000600760008373ffffffffffffffffffffffffffffffffffffffff1673ffffffffffffffffffffffffffffffffffffffff1681526020019081526020016000206000815480929190600101919050559050919050565b600061147e611478610fdb565b836119f7565b9050919050565b60008060008061149788888888611a38565b9250925092506114a78282611b2c565b829350505050949350505050565b600073ffffffffffffffffffffffffffffffffffffffff168473ffffffffffffffffffffffffffffffffffffffff16036115275760006040517fe602df0500000000000000000000000000000000000000000000000000000000815260040161151e91906121e3565b60405180910390fd5b600073ffffffffffffffffffffffffffffffffffffffff168373ffffffffffffffffffffffffffffffffffffffff16036115995760006040517f94280d6200000000000000000000000000000000000000000000000000000000815260040161159091906121e3565b60405180910390fd5b81600160008673ffffffffffffffffffffffffffffffffffffffff1673ffffffffffffffffffffffffffffffffffffffff16815260200190815260200160002060008573ffffffffffffffffffffffffffffffffffffffff1673ffffffffffffffffffffffffffffffffffffffff168152602001908152602001600020819055508015611686578273ffffffffffffffffffffffffffffffffffffffff168473ffffffffffffffffffffffffffffffffffffffff167f8c5be1e5ebec7d5bd14f71427d1e84f3dd0314c0f7b2291e5b200ac8c7c3b9258460405161167d9190611f24565b60405180910390a35b50505050565b60007f8b73c3c69bb8fe3d512ecc4cf759cc79239f7b179b0ffacaa9a75d522b39400f7f00000000000000000000000000000000000000000000000000000000000000007f00000000000000000000000000000000000000000000000000000000000000004630604051602001611707959493929190612963565b60405160208183030381529060405280519060200120905090565b600073ffffffffffffffffffffffffffffffffffffffff168373ffffffffffffffffffffffffffffffffffffffff160361177457806002600082825461176891906126bf565b92505081905550611847565b60008060008573ffffffffffffffffffffffffffffffffffffffff1673ffffffffffffffffffffffffffffffffffffffff16815260200190815260200160002054905081811015611800578381836040517fe450d38c0000000000000000000000000000000000000000000000000000000081526004016117f7939291906129b6565b60405180910390fd5b8181036000808673ffffffffffffffffffffffffffffffffffffffff1673ffffffffffffffffffffffffffffffffffffffff16815260200190815260200160002081905550505b600073ffffffffffffffffffffffffffffffffffffffff168273ffffffffffffffffffffffffffffffffffffffff160361189057806002600082825403925050819055506118dd565b806000808473ffffffffffffffffffffffffffffffffffffffff1673ffffffffffffffffffffffffffffffffffffffff168152602001908152602001600020600082825401925050819055505b8173ffffffffffffffffffffffffffffffffffffffff168373ffffffffffffffffffffffffffffffffffffffff167fddf252ad1be2c89b69c2b068fc378daa952ba7f163c4a11628f55a4df523b3ef8360405161193a9190611f24565b60405180910390a3505050565b606060ff60001b83146119645761195d83611c90565b90506119f1565b818054611970906123ba565b80601f016020809104026020016040519081016040528092919081815260200182805461199c906123ba565b80156119e95780601f106119be576101008083540402835291602001916119e9565b820191906000526020600020905b8154815290600101906020018083116119cc57829003601f168201915b505050505090505b92915050565b60006040517f190100000000000000000000000000000000000000000000000000000000000081528360028201528260228201526042812091505092915050565b60008060007f7fffffffffffffffffffffffffffffff5d576e7357a4501ddfe92f46681b20a08460001c1115611a78576000600385925092509250611b22565b600060018888888860405160008152602001604052604051611a9d94939291906129ed565b6020604051602081039080840390855afa158015611abf573d6000803e3d6000fd5b505050602060405103519050600073ffffffffffffffffffffffffffffffffffffffff168173ffffffffffffffffffffffffffffffffffffffff1603611b1357600060016000801b93509350935050611b22565b8060008060001b935093509350505b9450945094915050565b60006003811115611b4057611b3f612a32565b5b826003811115611b5357611b52612a32565b5b0315611c8c5760016003811115611b6d57611b6c612a32565b5b826003811115611b8057611b7f612a32565b5b03611bb7576040517ff645eedf00000000000000000000000000000000000000000000000000000000815260040160405180910390fd5b60026003811115611bcb57611bca612a32565b5b826003811115611bde57611bdd612a32565b5b03611c23578060001c6040517ffce698f7000000000000000000000000000000000000000000000000000000008152600401611c1a9190611f24565b60405180910390fd5b600380811115611c3657611c35612a32565b5b826003811115611c4957611c48612a32565b5b03611c8b57806040517fd78bce0c000000000000000000000000000000000000000000000000000000008152600401611c829190611fe2565b60405180910390fd5b5b5050565b60606000611c9d83611d04565b90506000602067ffffffffffffffff811115611cbc57611cbb61254c565b5b6040519080825280601f01601f191660200182016040528015611cee5781602001600182028036833780820191505090505b5090508181528360208201528092505050919050565b60008060ff8360001c169050601f811115611d4b576040517fb3512b0c00000000000000000000000000000000000000000000000000000000815260040160405180910390fd5b80915050919050565b600081519050919050565b600082825260208201905092915050565b60005b83811015611d8e578082015181840152602081019050611d73565b60008484015250505050565b6000601f19601f8301169050919050565b6000611db682611d54565b611dc08185611d5f565b9350611dd0818560208601611d70565b611dd981611d9a565b840191505092915050565b60006020820190508181036000830152611dfe8184611dab565b905092915050565b600080fd5b600073ffffffffffffffffffffffffffffffffffffffff82169050919050565b6000611e3682611e0b565b9050919050565b611e4681611e2b565b8114611e5157600080fd5b50565b600081359050611e6381611e3d565b92915050565b6000819050919050565b611e7c81611e69565b8114611e8757600080fd5b50565b600081359050611e9981611e73565b92915050565b60008060408385031215611eb657611eb5611e06565b5b6000611ec485828601611e54565b9250506020611ed585828601611e8a565b9150509250929050565b60008115159050919050565b611ef481611edf565b82525050565b6000602082019050611f0f6000830184611eeb565b92915050565b611f1e81611e69565b82525050565b6000602082019050611f396000830184611f15565b92915050565b600080600060608486031215611f5857611f57611e06565b5b6000611f6686828701611e54565b9350506020611f7786828701611e54565b9250506040611f8886828701611e8a565b9150509250925092565b600060ff82169050919050565b611fa881611f92565b82525050565b6000602082019050611fc36000830184611f9f565b92915050565b6000819050919050565b611fdc81611fc9565b82525050565b6000602082019050611ff76000830184611fd3565b92915050565b60006020828403121561201357612012611e06565b5b600061202184828501611e54565b91505092915050565b6000602082840312156120405761203f611e06565b5b600061204e84828501611e8a565b91505092915050565b60007fff0000000000000000000000000000000000000000000000000000000000000082169050919050565b61208c81612057565b82525050565b61209b81611e2b565b82525050565b600081519050919050565b600082825260208201905092915050565b6000819050602082019050919050565b6120d681611e69565b82525050565b60006120e883836120cd565b60208301905092915050565b6000602082019050919050565b600061210c826120a1565b61211681856120ac565b9350612121836120bd565b8060005b8381101561215257815161213988826120dc565b9750612144836120f4565b925050600181019050612125565b5085935050505092915050565b600060e082019050612174600083018a612083565b81810360208301526121868189611dab565b9050818103604083015261219a8188611dab565b90506121a96060830187611f15565b6121b66080830186612092565b6121c360a0830185611fd3565b81810360c08301526121d58184612101565b905098975050505050505050565b60006020820190506121f86000830184612092565b92915050565b60008060006060848603121561221757612216611e06565b5b600061222586828701611e54565b935050602061223686828701611e8a565b925050604061224786828701611e8a565b9150509250925092565b61225a81611f92565b811461226557600080fd5b50565b60008135905061227781612251565b92915050565b61228681611fc9565b811461229157600080fd5b50565b6000813590506122a38161227d565b92915050565b600080600080600080600060e0888a0312156122c8576122c7611e06565b5b60006122d68a828b01611e54565b97505060206122e78a828b01611e54565b96505060406122f88a828b01611e8a565b95505060606123098a828b01611e8a565b945050608061231a8a828b01612268565b93505060a061232b8a828b01612294565b92505060c061233c8a828b01612294565b91505092959891949750929550565b6000806040838503121561236257612361611e06565b5b600061237085828601611e54565b925050602061238185828601611e54565b9150509250929050565b7f4e487b7100000000000000000000000000000000000000000000000000000000600052602260045260246000fd5b600060028204905060018216806123d257607f821691505b6020821081036123e5576123e461238b565b5b50919050565b7f45524332303a207472616e7366657220616d6f756e742065786365656473206160008201527f6c6c6f77616e6365000000000000000000000000000000000000000000000000602082015250565b6000612447602883611d5f565b9150612452826123eb565b604082019050919050565b600060208201905081810360008301526124768161243a565b9050919050565b7f4e487b7100000000000000000000000000000000000000000000000000000000600052601160045260246000fd5b60006124b782611e69565b91506124c283611e69565b92508282039050818111156124da576124d961247d565b5b92915050565b7f496e76616c6964206275726e20616d6f756e7400000000000000000000000000600082015250565b6000612516601383611d5f565b9150612521826124e0565b602082019050919050565b6000602082019050818103600083015261254581612509565b9050919050565b7f4e487b7100000000000000000000000000000000000000000000000000000000600052604160045260246000fd5b7f496e76616c696420616464726573730000000000000000000000000000000000600082015250565b60006125b1600f83611d5f565b91506125bc8261257b565b602082019050919050565b600060208201905081810360008301526125e0816125a4565b9050919050565b7f496e76616c696420616d6f756e74000000000000000000000000000000000000600082015250565b600061261d600e83611d5f565b9150612628826125e7565b602082019050919050565b6000602082019050818103600083015261264c81612610565b9050919050565b7f56657374696e6720616c72656164792061737369676e65640000000000000000600082015250565b6000612689601883611d5f565b915061269482612653565b602082019050919050565b600060208201905081810360008301526126b88161267c565b9050919050565b60006126ca82611e69565b91506126d583611e69565b92508282019050808211156126ed576126ec61247d565b5b92915050565b600060c0820190506127086000830189611fd3565b6127156020830188612092565b6127226040830187612092565b61272f6060830186611f15565b61273c6080830185611f15565b61274960a0830184611f15565b979650505050505050565b60006040820190506127696000830185612092565b6127766020830184612092565b9392505050565b7f56657374696e6720706572696f64206e6f74206f766572000000000000000000600082015250565b60006127b3601783611d5f565b91506127be8261277d565b602082019050919050565b600060208201905081810360008301526127e2816127a6565b9050919050565b7f4e6f2076657374656420746f6b656e7300000000000000000000000000000000600082015250565b600061281f601083611d5f565b915061282a826127e9565b602082019050919050565b6000602082019050818103600083015261284e81612812565b9050919050565b7f496e73756666696369656e742062616c616e6365000000000000000000000000600082015250565b600061288b601483611d5f565b915061289682612855565b602082019050919050565b600060208201905081810360008301526128ba8161287e565b9050919050565b60006128cc82611e69565b91506128d783611e69565b92508282026128e581611e69565b915082820484148315176128fc576128fb61247d565b5b5092915050565b7f4e487b7100000000000000000000000000000000000000000000000000000000600052601260045260246000fd5b600061293d82611e69565b915061294883611e69565b92508261295857612957612903565b5b828204905092915050565b600060a0820190506129786000830188611fd3565b6129856020830187611fd3565b6129926040830186611fd3565b61299f6060830185611f15565b6129ac6080830184612092565b9695505050505050565b60006060820190506129cb6000830186612092565b6129d86020830185611f15565b6129e56040830184611f15565b949350505050565b6000608082019050612a026000830187611fd3565b612a0f6020830186611f9f565b612a1c6040830185611fd3565b612a296060830184611fd3565b95945050505050565b7f4e487b7100000000000000000000000000000000000000000000000000000000600052602160045260246000fdfea26469706673582212206c0e66337fba0a68cee256d1fe5ff15490a199e7100a6a5f4f74bca6259e779364736f6c63430008140033",
  "linkReferences": {},
  "deployedLinkReferences": {}
}